{
  "_format": "hh-sol-artifact-1",
  "contractName": "Pocketsub",
  "sourceName": "contracts/Pocketsub.sol",
  "abi": [
    {
      "inputs": [],
      "stateMutability": "nonpayable",
      "type": "constructor"
    },
    {
      "inputs": [],
      "name": "ERC721EnumerableForbiddenBatchMint",
      "type": "error"
    },
    {
      "inputs": [
        {
          "internalType": "address",
          "name": "sender",
          "type": "address"
        },
        {
          "internalType": "uint256",
          "name": "tokenId",
          "type": "uint256"
        },
        {
          "internalType": "address",
          "name": "owner",
          "type": "address"
        }
      ],
      "name": "ERC721IncorrectOwner",
      "type": "error"
    },
    {
      "inputs": [
        {
          "internalType": "address",
          "name": "operator",
          "type": "address"
        },
        {
          "internalType": "uint256",
          "name": "tokenId",
          "type": "uint256"
        }
      ],
      "name": "ERC721InsufficientApproval",
      "type": "error"
    },
    {
      "inputs": [
        {
          "internalType": "address",
          "name": "approver",
          "type": "address"
        }
      ],
      "name": "ERC721InvalidApprover",
      "type": "error"
    },
    {
      "inputs": [
        {
          "internalType": "address",
          "name": "operator",
          "type": "address"
        }
      ],
      "name": "ERC721InvalidOperator",
      "type": "error"
    },
    {
      "inputs": [
        {
          "internalType": "address",
          "name": "owner",
          "type": "address"
        }
      ],
      "name": "ERC721InvalidOwner",
      "type": "error"
    },
    {
      "inputs": [
        {
          "internalType": "address",
          "name": "receiver",
          "type": "address"
        }
      ],
      "name": "ERC721InvalidReceiver",
      "type": "error"
    },
    {
      "inputs": [
        {
          "internalType": "address",
          "name": "sender",
          "type": "address"
        }
      ],
      "name": "ERC721InvalidSender",
      "type": "error"
    },
    {
      "inputs": [
        {
          "internalType": "uint256",
          "name": "tokenId",
          "type": "uint256"
        }
      ],
      "name": "ERC721NonexistentToken",
      "type": "error"
    },
    {
      "inputs": [
        {
          "internalType": "address",
          "name": "owner",
          "type": "address"
        },
        {
          "internalType": "uint256",
          "name": "index",
          "type": "uint256"
        }
      ],
      "name": "ERC721OutOfBoundsIndex",
      "type": "error"
    },
    {
      "inputs": [
        {
          "internalType": "uint256",
          "name": "expectedPrice",
          "type": "uint256"
        }
      ],
      "name": "InsufficientFunds",
      "type": "error"
    },
    {
      "inputs": [
        {
          "internalType": "bytes32",
          "name": "accessHash",
          "type": "bytes32"
        }
      ],
      "name": "MintUnavailable",
      "type": "error"
    },
    {
      "anonymous": false,
      "inputs": [
        {
          "indexed": true,
          "internalType": "address",
          "name": "owner",
          "type": "address"
        },
        {
          "indexed": true,
          "internalType": "address",
          "name": "approved",
          "type": "address"
        },
        {
          "indexed": true,
          "internalType": "uint256",
          "name": "tokenId",
          "type": "uint256"
        }
      ],
      "name": "Approval",
      "type": "event"
    },
    {
      "anonymous": false,
      "inputs": [
        {
          "indexed": true,
          "internalType": "address",
          "name": "owner",
          "type": "address"
        },
        {
          "indexed": true,
          "internalType": "address",
          "name": "operator",
          "type": "address"
        },
        {
          "indexed": false,
          "internalType": "bool",
          "name": "approved",
          "type": "bool"
        }
      ],
      "name": "ApprovalForAll",
      "type": "event"
    },
    {
      "anonymous": false,
      "inputs": [
        {
          "indexed": true,
          "internalType": "address",
          "name": "from",
          "type": "address"
        },
        {
          "indexed": true,
          "internalType": "address",
          "name": "to",
          "type": "address"
        },
        {
          "indexed": true,
          "internalType": "uint256",
          "name": "tokenId",
          "type": "uint256"
        }
      ],
      "name": "Transfer",
      "type": "event"
    },
    {
      "inputs": [
        {
          "internalType": "bytes32",
          "name": "",
          "type": "bytes32"
        }
      ],
      "name": "accessControl",
      "outputs": [
        {
          "internalType": "string",
          "name": "resourceId",
          "type": "string"
        },
        {
          "internalType": "uint256",
          "name": "price",
          "type": "uint256"
        },
        {
          "internalType": "uint32",
          "name": "expirationDuration",
          "type": "uint32"
        }
      ],
      "stateMutability": "view",
      "type": "function"
    },
    {
      "inputs": [
        {
          "internalType": "address",
          "name": "to",
          "type": "address"
        },
        {
          "internalType": "uint256",
          "name": "tokenId",
          "type": "uint256"
        }
      ],
      "name": "approve",
      "outputs": [],
      "stateMutability": "nonpayable",
      "type": "function"
    },
    {
      "inputs": [
        {
          "internalType": "address",
          "name": "owner",
          "type": "address"
        }
      ],
      "name": "balanceOf",
      "outputs": [
        {
          "internalType": "uint256",
          "name": "",
          "type": "uint256"
        }
      ],
      "stateMutability": "view",
      "type": "function"
    },
    {
      "inputs": [
        {
          "internalType": "string",
          "name": "resourceId",
          "type": "string"
        }
      ],
      "name": "delAccess",
      "outputs": [],
      "stateMutability": "nonpayable",
      "type": "function"
    },
    {
      "inputs": [
        {
          "internalType": "address",
          "name": "author",
          "type": "address"
        },
        {
          "internalType": "string",
          "name": "resourceId",
          "type": "string"
        }
      ],
      "name": "existAccess",
      "outputs": [
        {
          "internalType": "bool",
          "name": "",
          "type": "bool"
        }
      ],
      "stateMutability": "view",
      "type": "function"
    },
    {
      "inputs": [
        {
          "internalType": "bytes32",
          "name": "hash",
          "type": "bytes32"
        }
      ],
      "name": "existAccess",
      "outputs": [
        {
          "internalType": "bool",
          "name": "",
          "type": "bool"
        }
      ],
      "stateMutability": "view",
      "type": "function"
    },
    {
      "inputs": [
        {
          "internalType": "address",
          "name": "author",
          "type": "address"
        },
        {
          "internalType": "string",
          "name": "resourceId",
          "type": "string"
        }
      ],
      "name": "getAccessControl",
      "outputs": [
        {
          "internalType": "uint256",
          "name": "price",
          "type": "uint256"
        },
        {
          "internalType": "uint32",
          "name": "expirationDuration",
          "type": "uint32"
        }
      ],
      "stateMutability": "view",
      "type": "function"
    },
    {
      "inputs": [
        {
          "internalType": "uint256",
          "name": "tokenId",
          "type": "uint256"
        }
      ],
      "name": "getApproved",
      "outputs": [
        {
          "internalType": "address",
          "name": "",
          "type": "address"
        }
      ],
      "stateMutability": "view",
      "type": "function"
    },
    {
      "inputs": [
        {
          "internalType": "address",
          "name": "author",
          "type": "address"
        },
        {
          "internalType": "string",
          "name": "resourceId",
          "type": "string"
        },
        {
          "internalType": "address",
          "name": "consumer",
          "type": "address"
        }
      ],
      "name": "hasAccess",
      "outputs": [
        {
          "internalType": "bool",
          "name": "response",
          "type": "bool"
        },
        {
          "internalType": "string",
          "name": "message",
          "type": "string"
        },
        {
          "internalType": "int32",
          "name": "expirationTime",
          "type": "int32"
        }
      ],
      "stateMutability": "view",
      "type": "function"
    },
    {
      "inputs": [
        {
          "internalType": "address",
          "name": "owner",
          "type": "address"
        },
        {
          "internalType": "address",
          "name": "operator",
          "type": "address"
        }
      ],
      "name": "isApprovedForAll",
      "outputs": [
        {
          "internalType": "bool",
          "name": "",
          "type": "bool"
        }
      ],
      "stateMutability": "view",
      "type": "function"
    },
    {
      "inputs": [
        {
          "internalType": "address",
          "name": "author",
          "type": "address"
        },
        {
          "internalType": "string",
          "name": "resourceId",
          "type": "string"
        },
        {
          "internalType": "address",
          "name": "to",
          "type": "address"
        }
      ],
      "name": "mint",
      "outputs": [],
      "stateMutability": "payable",
      "type": "function"
    },
    {
      "inputs": [],
      "name": "name",
      "outputs": [
        {
          "internalType": "string",
          "name": "",
          "type": "string"
        }
      ],
      "stateMutability": "view",
      "type": "function"
    },
    {
      "inputs": [
        {
          "internalType": "uint256",
          "name": "",
          "type": "uint256"
        }
      ],
      "name": "nftData",
      "outputs": [
        {
          "internalType": "bytes32",
          "name": "hash",
          "type": "bytes32"
        },
        {
          "internalType": "string",
          "name": "resourceId",
          "type": "string"
        },
        {
          "internalType": "uint32",
          "name": "expirationTime",
          "type": "uint32"
        }
      ],
      "stateMutability": "view",
      "type": "function"
    },
    {
      "inputs": [
        {
          "internalType": "uint256",
          "name": "tokenId",
          "type": "uint256"
        }
      ],
      "name": "ownerOf",
      "outputs": [
        {
          "internalType": "address",
          "name": "",
          "type": "address"
        }
      ],
      "stateMutability": "view",
      "type": "function"
    },
    {
      "inputs": [
        {
          "internalType": "address",
          "name": "from",
          "type": "address"
        },
        {
          "internalType": "address",
          "name": "to",
          "type": "address"
        },
        {
          "internalType": "uint256",
          "name": "tokenId",
          "type": "uint256"
        }
      ],
      "name": "safeTransferFrom",
      "outputs": [],
      "stateMutability": "nonpayable",
      "type": "function"
    },
    {
      "inputs": [
        {
          "internalType": "address",
          "name": "from",
          "type": "address"
        },
        {
          "internalType": "address",
          "name": "to",
          "type": "address"
        },
        {
          "internalType": "uint256",
          "name": "tokenId",
          "type": "uint256"
        },
        {
          "internalType": "bytes",
          "name": "data",
          "type": "bytes"
        }
      ],
      "name": "safeTransferFrom",
      "outputs": [],
      "stateMutability": "nonpayable",
      "type": "function"
    },
    {
      "inputs": [
        {
          "internalType": "string",
          "name": "resourceId",
          "type": "string"
        },
        {
          "internalType": "uint256",
          "name": "price",
          "type": "uint256"
        },
        {
          "internalType": "uint32",
          "name": "expirationDuration",
          "type": "uint32"
        }
      ],
      "name": "setAccess",
      "outputs": [],
      "stateMutability": "nonpayable",
      "type": "function"
    },
    {
      "inputs": [
        {
          "internalType": "address",
          "name": "operator",
          "type": "address"
        },
        {
          "internalType": "bool",
          "name": "approved",
          "type": "bool"
        }
      ],
      "name": "setApprovalForAll",
      "outputs": [],
      "stateMutability": "nonpayable",
      "type": "function"
    },
    {
      "inputs": [
        {
          "internalType": "bytes4",
          "name": "interfaceId",
          "type": "bytes4"
        }
      ],
      "name": "supportsInterface",
      "outputs": [
        {
          "internalType": "bool",
          "name": "",
          "type": "bool"
        }
      ],
      "stateMutability": "view",
      "type": "function"
    },
    {
      "inputs": [],
      "name": "symbol",
      "outputs": [
        {
          "internalType": "string",
          "name": "",
          "type": "string"
        }
      ],
      "stateMutability": "view",
      "type": "function"
    },
    {
      "inputs": [
        {
          "internalType": "uint256",
          "name": "index",
          "type": "uint256"
        }
      ],
      "name": "tokenByIndex",
      "outputs": [
        {
          "internalType": "uint256",
          "name": "",
          "type": "uint256"
        }
      ],
      "stateMutability": "view",
      "type": "function"
    },
    {
      "inputs": [
        {
          "internalType": "address",
          "name": "owner",
          "type": "address"
        },
        {
          "internalType": "uint256",
          "name": "index",
          "type": "uint256"
        }
      ],
      "name": "tokenOfOwnerByIndex",
      "outputs": [
        {
          "internalType": "uint256",
          "name": "",
          "type": "uint256"
        }
      ],
      "stateMutability": "view",
      "type": "function"
    },
    {
      "inputs": [
        {
          "internalType": "uint256",
          "name": "tokenId",
          "type": "uint256"
        }
      ],
      "name": "tokenURI",
      "outputs": [
        {
          "internalType": "string",
          "name": "",
          "type": "string"
        }
      ],
      "stateMutability": "view",
      "type": "function"
    },
    {
      "inputs": [],
      "name": "totalSupply",
      "outputs": [
        {
          "internalType": "uint256",
          "name": "",
          "type": "uint256"
        }
      ],
      "stateMutability": "view",
      "type": "function"
    },
    {
      "inputs": [
        {
          "internalType": "address",
          "name": "from",
          "type": "address"
        },
        {
          "internalType": "address",
          "name": "to",
          "type": "address"
        },
        {
          "internalType": "uint256",
          "name": "tokenId",
          "type": "uint256"
        }
      ],
      "name": "transferFrom",
      "outputs": [],
      "stateMutability": "nonpayable",
      "type": "function"
    }
  ],
  "bytecode": "0x60806040523480156200001157600080fd5b50604051806040016040528060098152602001682837b1b5b2ba39bab160b91b81525060405180604001604052806003815260200162504b5360e81b8152508181816000908162000063919062000124565b50600162000072828262000124565b5050505050620001f0565b634e487b7160e01b600052604160045260246000fd5b600181811c90821680620000a857607f821691505b602082108103620000c957634e487b7160e01b600052602260045260246000fd5b50919050565b601f8211156200011f576000816000526020600020601f850160051c81016020861015620000fa5750805b601f850160051c820191505b818110156200011b5782815560010162000106565b5050505b505050565b81516001600160401b038111156200014057620001406200007d565b620001588162000151845462000093565b84620000cf565b602080601f831160018114620001905760008415620001775750858301515b600019600386901b1c1916600185901b1785556200011b565b600085815260208120601f198616915b82811015620001c157888601518255948401946001909101908401620001a0565b5085821015620001e05787850151600019600388901b60f8161c191681555b5050505050600190811b01905550565b61224680620002006000396000f3fe6080604052600436106101665760003560e01c80636352211e116100d1578063a22cb4651161008a578063c87b56dd11610064578063c87b56dd14610477578063d10e2e1914610497578063e985e9c5146104b7578063fa8509c8146104d757600080fd5b8063a22cb46514610417578063a97ae22314610437578063b88d4fde1461045757600080fd5b80636352211e1461034457806370a08231146103645780638b6df91a146103845780638c210975146103b357806395d89b41146103e25780639f098c4e146103f757600080fd5b806323b872dd1161012357806323b872dd1461025b5780632c94436f1461027b5780632f745c59146102aa57806340735c5b146102ca57806342842e0e146103045780634f6ccce71461032457600080fd5b806301ffc9a71461016b57806306fdde03146101a0578063081812fc146101c2578063095ea7b3146101fa5780630aa568111461021c57806318160ddd1461023c575b600080fd5b34801561017757600080fd5b5061018b610186366004611aa4565b6104ea565b60405190151581526020015b60405180910390f35b3480156101ac57600080fd5b506101b56104fb565b6040516101979190611b11565b3480156101ce57600080fd5b506101e26101dd366004611b24565b61058d565b6040516001600160a01b039091168152602001610197565b34801561020657600080fd5b5061021a610215366004611b59565b6105b6565b005b34801561022857600080fd5b5061021a610237366004611bcc565b6105c5565b34801561024857600080fd5b506008545b604051908152602001610197565b34801561026757600080fd5b5061021a610276366004611c34565b6105d8565b34801561028757600080fd5b5061029b610296366004611c70565b610662565b60405161019793929190611cd5565b3480156102b657600080fd5b5061024d6102c5366004611b59565b610908565b3480156102d657600080fd5b506102ea6102e5366004611d03565b61096d565b6040805192835263ffffffff909116602083015201610197565b34801561031057600080fd5b5061021a61031f366004611c34565b6109aa565b34801561033057600080fd5b5061024d61033f366004611b24565b6109ca565b34801561035057600080fd5b506101e261035f366004611b24565b610a23565b34801561037057600080fd5b5061024d61037f366004611d56565b610a2e565b34801561039057600080fd5b506103a461039f366004611b24565b610a76565b60405161019793929190611d71565b3480156103bf57600080fd5b506103d36103ce366004611b24565b610b27565b60405161019793929190611da0565b3480156103ee57600080fd5b506101b5610bd8565b34801561040357600080fd5b5061018b610412366004611d03565b610be7565b34801561042357600080fd5b5061021a610432366004611ddd565b610c61565b34801561044357600080fd5b5061021a610452366004611e14565b610c6c565b34801561046357600080fd5b5061021a610472366004611e6c565b610caf565b34801561048357600080fd5b506101b5610492366004611b24565b610cc6565b3480156104a357600080fd5b5061018b6104b2366004611b24565b610d3b565b3480156104c357600080fd5b5061018b6104d2366004611f48565b610d5d565b61021a6104e5366004611c70565b610d8b565b60006104f582610fa1565b92915050565b60606000805461050a90611f7b565b80601f016020809104026020016040519081016040528092919081815260200182805461053690611f7b565b80156105835780601f1061055857610100808354040283529160200191610583565b820191906000526020600020905b81548152906001019060200180831161056657829003601f168201915b5050505050905090565b600061059882610fc6565b506000828152600460205260409020546001600160a01b03166104f5565b6105c1828233610fff565b5050565b6105d2338585858561100c565b50505050565b6001600160a01b03821661060757604051633250574960e11b8152600060048201526024015b60405180910390fd5b60006106148383336110b9565b9050836001600160a01b0316816001600160a01b0316146105d2576040516364283d7b60e01b81526001600160a01b03808616600483015260248201849052821660448201526064016105fe565b600060606000806106748888886110c6565b60405163d10e2e1960e01b815260048101829052909150309063d10e2e1990602401602060405180830381865afa1580156106b3573d6000803e3d6000fd5b505050506040513d601f19601f820116820180604052508101906106d79190611fb5565b6107165750506040805180820190915260148152731858d8d95cdcc8191bd95cdb89dd08195e1a5cdd60621b60208201526000925090506000196108fe565b6000805b61072387610a2e565b8110156108795760006107368883610908565b90506000600b60008381526020019081526020016000206040518060600160405290816000820154815260200160018201805461077290611f7b565b80601f016020809104026020016040519081016040528092919081815260200182805461079e90611f7b565b80156107eb5780601f106107c0576101008083540402835291602001916107eb565b820191906000526020600020905b8154815290600101906020018083116107ce57829003601f168201915b50505091835250506002919091015463ffffffff16602090910152805190915085900361086e57806040015163ffffffff1642111561082f57600193505050610871565b600181604001516040518060400160405280600e81526020016d1858d8d95cdcc819dc985b9d195960921b8152509097509750975050505050506108fe565b50505b60010161071a565b50806108c05760006000196040518060400160405280601881526020017f7573657220646f65736e2774206f776e20746865204e46540000000000000000815250906108f1565b6000600019604051806040016040528060118152602001701858d8d95cdcc81a5cc8195e1c1a5c9959607a1b815250905b919650945060000b925050505b9450945094915050565b600061091383610a2e565b82106109445760405163295f44f760e21b81526001600160a01b0384166004820152602481018390526044016105fe565b506001600160a01b03919091166000908152600660209081526040808320938352929052205490565b600080600061097d8686866110c6565b6000908152600a60205260409020600181015460029091015490935063ffffffff16915050935093915050565b6109c583838360405180602001604052806000815250610caf565b505050565b60006109d560085490565b82106109fe5760405163295f44f760e21b815260006004820152602481018390526044016105fe565b60088281548110610a1157610a11611fd2565b90600052602060002001549050919050565b60006104f582610fc6565b60006001600160a01b038216610a5a576040516322718ad960e21b8152600060048201526024016105fe565b506001600160a01b031660009081526003602052604090205490565b600a60205260009081526040902080548190610a9190611f7b565b80601f0160208091040260200160405190810160405280929190818152602001828054610abd90611f7b565b8015610b0a5780601f10610adf57610100808354040283529160200191610b0a565b820191906000526020600020905b815481529060010190602001808311610aed57829003601f168201915b50505050600183015460029093015491929163ffffffff16905083565b600b6020526000908152604090208054600182018054919291610b4990611f7b565b80601f0160208091040260200160405190810160405280929190818152602001828054610b7590611f7b565b8015610bc25780601f10610b9757610100808354040283529160200191610bc2565b820191906000526020600020905b815481529060010190602001808311610ba557829003601f168201915b5050506002909301549192505063ffffffff1683565b60606001805461050a90611f7b565b60003063d10e2e19610bfa8686866110c6565b6040518263ffffffff1660e01b8152600401610c1891815260200190565b602060405180830381865afa158015610c35573d6000803e3d6000fd5b505050506040513d601f19601f82011682018060405250810190610c599190611fb5565b949350505050565b6105c13383836110fc565b6000610c793384846110c6565b6000818152600a60205260408120919250610c948282611a38565b5060006001820155600201805463ffffffff19169055505050565b610cba8484846105d8565b6105d28484848461119b565b6060610cd182610fc6565b506000610ce960408051602081019091526000815290565b90506000815111610d095760405180602001604052806000815250610d34565b80610d13846112c4565b604051602001610d24929190611fe8565b6040516020818303038152906040525b9392505050565b6000818152600a602052604081208054610d5490611f7b565b15159392505050565b6001600160a01b03918216600090815260056020908152604080832093909416825291909152205460ff1690565b6000610d988585856110c6565b60405163d10e2e1960e01b815260048101829052909150309063d10e2e1990602401602060405180830381865afa158015610dd7573d6000803e3d6000fd5b505050506040513d601f19601f82011682018060405250810190610dfb9190611fb5565b610e1b57604051636bbe423d60e11b8152600481018290526024016105fe565b6000818152600a602052604090206001015434811115610e51576040516365bc667160e11b8152600481018290526024016105fe565b6000610e5c60085490565b90506040518060600160405280848152602001600a60008681526020019081526020016000206000018054610e9090611f7b565b80601f0160208091040260200160405190810160405280929190818152602001828054610ebc90611f7b565b8015610f095780601f10610ede57610100808354040283529160200191610f09565b820191906000526020600020905b815481529060010190602001808311610eec57829003601f168201915b50505091835250506000858152600a6020908152604090912060020154910190610f3a90429063ffffffff1661202d565b63ffffffff1690526000828152600b6020908152604090912082518155908201516001820190610f6a90826120a1565b50604091909101516002909101805463ffffffff191663ffffffff909216919091179055610f988482611357565b50505050505050565b60006001600160e01b0319821663780e9d6360e01b14806104f557506104f582611371565b6000818152600260205260408120546001600160a01b0316806104f557604051637e27328960e01b8152600481018490526024016105fe565b6109c583838360016113c1565b60006110198686866110c6565b6040805160806020601f890181900402820181019092526060810187815292935091829188908890819085018382808284376000920182905250938552505050602080830187905263ffffffff8616604093840152848252600a9052208151819061108490826120a1565b50602082015160018201556040909101516002909101805463ffffffff191663ffffffff909216919091179055505050505050565b6000610c598484846114c7565b60008383836040516020016110dd93929190612161565b6040516020818303038152906040528051906020012090509392505050565b6001600160a01b03821661112e57604051630b61174360e31b81526001600160a01b03831660048201526024016105fe565b6001600160a01b03838116600081815260056020908152604080832094871680845294825291829020805460ff191686151590811790915591519182527f17307eab39ab6107e8899845ad3d59bd9653f200f220920489ca2b5937696c31910160405180910390a3505050565b6001600160a01b0383163b156105d257604051630a85bd0160e11b81526001600160a01b0384169063150b7a02906111dd90339088908790879060040161218d565b6020604051808303816000875af1925050508015611218575060408051601f3d908101601f19168201909252611215918101906121ca565b60015b611281573d808015611246576040519150601f19603f3d011682016040523d82523d6000602084013e61124b565b606091505b50805160000361127957604051633250574960e11b81526001600160a01b03851660048201526024016105fe565b805181602001fd5b6001600160e01b03198116630a85bd0160e11b146112bd57604051633250574960e11b81526001600160a01b03851660048201526024016105fe565b5050505050565b606060006112d183611594565b600101905060008167ffffffffffffffff8111156112f1576112f1611e56565b6040519080825280601f01601f19166020018201604052801561131b576020820181803683370190505b5090508181016020015b600019016f181899199a1a9b1b9c1cb0b131b232b360811b600a86061a8153600a850494508461132557509392505050565b6105c182826040518060200160405280600081525061166c565b60006001600160e01b031982166380ac58cd60e01b14806113a257506001600160e01b03198216635b5e139f60e01b145b806104f557506301ffc9a760e01b6001600160e01b03198316146104f5565b80806113d557506001600160a01b03821615155b156114975760006113e584610fc6565b90506001600160a01b038316158015906114115750826001600160a01b0316816001600160a01b031614155b801561142457506114228184610d5d565b155b1561144d5760405163a9fbf51f60e01b81526001600160a01b03841660048201526024016105fe565b81156114955783856001600160a01b0316826001600160a01b03167f8c5be1e5ebec7d5bd14f71427d1e84f3dd0314c0f7b2291e5b200ac8c7c3b92560405160405180910390a45b505b5050600090815260046020526040902080546001600160a01b0319166001600160a01b0392909216919091179055565b6000806114d5858585611683565b90506001600160a01b0381166115325761152d84600880546000838152600960205260408120829055600182018355919091527ff3f7a9fe364faab93b216da50a3214154f22a0a2b415b23a84c8169e8b636ee30155565b611555565b846001600160a01b0316816001600160a01b03161461155557611555818561177c565b6001600160a01b0385166115715761156c8461180d565b610c59565b846001600160a01b0316816001600160a01b031614610c5957610c5985856118bc565b60008072184f03e93ff9f4daa797ed6e38ed64bf6a1f0160401b83106115d35772184f03e93ff9f4daa797ed6e38ed64bf6a1f0160401b830492506040015b6d04ee2d6d415b85acef810000000083106115ff576d04ee2d6d415b85acef8100000000830492506020015b662386f26fc10000831061161d57662386f26fc10000830492506010015b6305f5e1008310611635576305f5e100830492506008015b612710831061164957612710830492506004015b6064831061165b576064830492506002015b600a83106104f55760010192915050565b611676838361190c565b6109c5600084848461119b565b6000828152600260205260408120546001600160a01b03908116908316156116b0576116b0818486611971565b6001600160a01b038116156116ee576116cd6000856000806113c1565b6001600160a01b038116600090815260036020526040902080546000190190555b6001600160a01b0385161561171d576001600160a01b0385166000908152600360205260409020805460010190555b60008481526002602052604080822080546001600160a01b0319166001600160a01b0389811691821790925591518793918516917fddf252ad1be2c89b69c2b068fc378daa952ba7f163c4a11628f55a4df523b3ef91a4949350505050565b600061178783610a2e565b6000838152600760205260409020549091508082146117da576001600160a01b03841660009081526006602090815260408083208584528252808320548484528184208190558352600790915290208190555b5060009182526007602090815260408084208490556001600160a01b039094168352600681528383209183525290812055565b60085460009061181f906001906121e7565b6000838152600960205260408120546008805493945090928490811061184757611847611fd2565b90600052602060002001549050806008838154811061186857611868611fd2565b60009182526020808320909101929092558281526009909152604080822084905585825281205560088054806118a0576118a06121fa565b6001900381819060005260206000200160009055905550505050565b600060016118c984610a2e565b6118d391906121e7565b6001600160a01b039093166000908152600660209081526040808320868452825280832085905593825260079052919091209190915550565b6001600160a01b03821661193657604051633250574960e11b8152600060048201526024016105fe565b6000611944838360006110b9565b90506001600160a01b038116156109c5576040516339e3563760e11b8152600060048201526024016105fe565b61197c8383836119d5565b6109c5576001600160a01b0383166119aa57604051637e27328960e01b8152600481018290526024016105fe565b60405163177e802f60e01b81526001600160a01b0383166004820152602481018290526044016105fe565b60006001600160a01b03831615801590610c595750826001600160a01b0316846001600160a01b03161480611a0f5750611a0f8484610d5d565b80610c595750506000908152600460205260409020546001600160a01b03908116911614919050565b508054611a4490611f7b565b6000825580601f10611a54575050565b601f016020900490600052602060002090810190611a729190611a75565b50565b5b80821115611a8a5760008155600101611a76565b5090565b6001600160e01b031981168114611a7257600080fd5b600060208284031215611ab657600080fd5b8135610d3481611a8e565b60005b83811015611adc578181015183820152602001611ac4565b50506000910152565b60008151808452611afd816020860160208601611ac1565b601f01601f19169290920160200192915050565b602081526000610d346020830184611ae5565b600060208284031215611b3657600080fd5b5035919050565b80356001600160a01b0381168114611b5457600080fd5b919050565b60008060408385031215611b6c57600080fd5b611b7583611b3d565b946020939093013593505050565b60008083601f840112611b9557600080fd5b50813567ffffffffffffffff811115611bad57600080fd5b602083019150836020828501011115611bc557600080fd5b9250929050565b60008060008060608587031215611be257600080fd5b843567ffffffffffffffff811115611bf957600080fd5b611c0587828801611b83565b90955093505060208501359150604085013563ffffffff81168114611c2957600080fd5b939692955090935050565b600080600060608486031215611c4957600080fd5b611c5284611b3d565b9250611c6060208501611b3d565b9150604084013590509250925092565b60008060008060608587031215611c8657600080fd5b611c8f85611b3d565b9350602085013567ffffffffffffffff811115611cab57600080fd5b611cb787828801611b83565b9094509250611cca905060408601611b3d565b905092959194509250565b8315158152606060208201526000611cf06060830185611ae5565b90508260030b6040830152949350505050565b600080600060408486031215611d1857600080fd5b611d2184611b3d565b9250602084013567ffffffffffffffff811115611d3d57600080fd5b611d4986828701611b83565b9497909650939450505050565b600060208284031215611d6857600080fd5b610d3482611b3d565b606081526000611d846060830186611ae5565b905083602083015263ffffffff83166040830152949350505050565b838152606060208201526000611db96060830185611ae5565b905063ffffffff83166040830152949350505050565b8015158114611a7257600080fd5b60008060408385031215611df057600080fd5b611df983611b3d565b91506020830135611e0981611dcf565b809150509250929050565b60008060208385031215611e2757600080fd5b823567ffffffffffffffff811115611e3e57600080fd5b611e4a85828601611b83565b90969095509350505050565b634e487b7160e01b600052604160045260246000fd5b60008060008060808587031215611e8257600080fd5b611e8b85611b3d565b9350611e9960208601611b3d565b925060408501359150606085013567ffffffffffffffff80821115611ebd57600080fd5b818701915087601f830112611ed157600080fd5b813581811115611ee357611ee3611e56565b604051601f8201601f19908116603f01168101908382118183101715611f0b57611f0b611e56565b816040528281528a6020848701011115611f2457600080fd5b82602086016020830137600060208483010152809550505050505092959194509250565b60008060408385031215611f5b57600080fd5b611f6483611b3d565b9150611f7260208401611b3d565b90509250929050565b600181811c90821680611f8f57607f821691505b602082108103611faf57634e487b7160e01b600052602260045260246000fd5b50919050565b600060208284031215611fc757600080fd5b8151610d3481611dcf565b634e487b7160e01b600052603260045260246000fd5b60008351611ffa818460208801611ac1565b83519083019061200e818360208801611ac1565b01949350505050565b634e487b7160e01b600052601160045260246000fd5b63ffffffff81811683821601908082111561204a5761204a612017565b5092915050565b601f8211156109c5576000816000526020600020601f850160051c8101602086101561207a5750805b601f850160051c820191505b8181101561209957828155600101612086565b505050505050565b815167ffffffffffffffff8111156120bb576120bb611e56565b6120cf816120c98454611f7b565b84612051565b602080601f83116001811461210457600084156120ec5750858301515b600019600386901b1c1916600185901b178555612099565b600085815260208120601f198616915b8281101561213357888601518255948401946001909101908401612114565b50858210156121515787850151600019600388901b60f8161c191681555b5050505050600190811b01905550565b6bffffffffffffffffffffffff198460601b168152818360148301376000910160140190815292915050565b6001600160a01b03858116825284166020820152604081018390526080606082018190526000906121c090830184611ae5565b9695505050505050565b6000602082840312156121dc57600080fd5b8151610d3481611a8e565b818103818111156104f5576104f5612017565b634e487b7160e01b600052603160045260246000fdfea26469706673582212202204a8a4acbecb3ca3b736e58210d97c36ab49395a5a79d0f76024e8ba7acb2764736f6c63430008180033",
  "linkReferences": {},
  "deployedLinkReferences": {}
}