{
  "_format": "hh-sol-artifact-1",
  "contractName": "Pocketsub",
  "sourceName": "contracts/Pocketsub.sol",
  "abi": [
    {
      "inputs": [],
      "stateMutability": "nonpayable",
      "type": "constructor"
    },
    {
      "inputs": [],
      "name": "ERC721EnumerableForbiddenBatchMint",
      "type": "error"
    },
    {
      "inputs": [
        {
          "internalType": "address",
          "name": "sender",
          "type": "address"
        },
        {
          "internalType": "uint256",
          "name": "tokenId",
          "type": "uint256"
        },
        {
          "internalType": "address",
          "name": "owner",
          "type": "address"
        }
      ],
      "name": "ERC721IncorrectOwner",
      "type": "error"
    },
    {
      "inputs": [
        {
          "internalType": "address",
          "name": "operator",
          "type": "address"
        },
        {
          "internalType": "uint256",
          "name": "tokenId",
          "type": "uint256"
        }
      ],
      "name": "ERC721InsufficientApproval",
      "type": "error"
    },
    {
      "inputs": [
        {
          "internalType": "address",
          "name": "approver",
          "type": "address"
        }
      ],
      "name": "ERC721InvalidApprover",
      "type": "error"
    },
    {
      "inputs": [
        {
          "internalType": "address",
          "name": "operator",
          "type": "address"
        }
      ],
      "name": "ERC721InvalidOperator",
      "type": "error"
    },
    {
      "inputs": [
        {
          "internalType": "address",
          "name": "owner",
          "type": "address"
        }
      ],
      "name": "ERC721InvalidOwner",
      "type": "error"
    },
    {
      "inputs": [
        {
          "internalType": "address",
          "name": "receiver",
          "type": "address"
        }
      ],
      "name": "ERC721InvalidReceiver",
      "type": "error"
    },
    {
      "inputs": [
        {
          "internalType": "address",
          "name": "sender",
          "type": "address"
        }
      ],
      "name": "ERC721InvalidSender",
      "type": "error"
    },
    {
      "inputs": [
        {
          "internalType": "uint256",
          "name": "tokenId",
          "type": "uint256"
        }
      ],
      "name": "ERC721NonexistentToken",
      "type": "error"
    },
    {
      "inputs": [
        {
          "internalType": "address",
          "name": "owner",
          "type": "address"
        },
        {
          "internalType": "uint256",
          "name": "index",
          "type": "uint256"
        }
      ],
      "name": "ERC721OutOfBoundsIndex",
      "type": "error"
    },
    {
      "inputs": [
        {
          "internalType": "uint256",
          "name": "expectedPrice",
          "type": "uint256"
        }
      ],
      "name": "InsufficientFunds",
      "type": "error"
    },
    {
      "inputs": [
        {
          "internalType": "bytes32",
          "name": "accessHash",
          "type": "bytes32"
        }
      ],
      "name": "MintUnavailable",
      "type": "error"
    },
    {
      "inputs": [],
      "name": "ReentrancyGuardReentrantCall",
      "type": "error"
    },
    {
      "anonymous": false,
      "inputs": [
        {
          "indexed": true,
          "internalType": "address",
          "name": "owner",
          "type": "address"
        },
        {
          "indexed": true,
          "internalType": "address",
          "name": "approved",
          "type": "address"
        },
        {
          "indexed": true,
          "internalType": "uint256",
          "name": "tokenId",
          "type": "uint256"
        }
      ],
      "name": "Approval",
      "type": "event"
    },
    {
      "anonymous": false,
      "inputs": [
        {
          "indexed": true,
          "internalType": "address",
          "name": "owner",
          "type": "address"
        },
        {
          "indexed": true,
          "internalType": "address",
          "name": "operator",
          "type": "address"
        },
        {
          "indexed": false,
          "internalType": "bool",
          "name": "approved",
          "type": "bool"
        }
      ],
      "name": "ApprovalForAll",
      "type": "event"
    },
    {
      "anonymous": false,
      "inputs": [
        {
          "indexed": true,
          "internalType": "address",
          "name": "from",
          "type": "address"
        },
        {
          "indexed": true,
          "internalType": "address",
          "name": "to",
          "type": "address"
        },
        {
          "indexed": true,
          "internalType": "uint256",
          "name": "tokenId",
          "type": "uint256"
        }
      ],
      "name": "Transfer",
      "type": "event"
    },
    {
      "inputs": [
        {
          "internalType": "bytes32",
          "name": "",
          "type": "bytes32"
        }
      ],
      "name": "accessControl",
      "outputs": [
        {
          "internalType": "string",
          "name": "resourceId",
          "type": "string"
        },
        {
          "internalType": "uint256",
          "name": "price",
          "type": "uint256"
        },
        {
          "internalType": "uint32",
          "name": "expirationDuration",
          "type": "uint32"
        }
      ],
      "stateMutability": "view",
      "type": "function"
    },
    {
      "inputs": [
        {
          "internalType": "address",
          "name": "to",
          "type": "address"
        },
        {
          "internalType": "uint256",
          "name": "tokenId",
          "type": "uint256"
        }
      ],
      "name": "approve",
      "outputs": [],
      "stateMutability": "nonpayable",
      "type": "function"
    },
    {
      "inputs": [
        {
          "internalType": "address",
          "name": "owner",
          "type": "address"
        }
      ],
      "name": "balanceOf",
      "outputs": [
        {
          "internalType": "uint256",
          "name": "",
          "type": "uint256"
        }
      ],
      "stateMutability": "view",
      "type": "function"
    },
    {
      "inputs": [
        {
          "internalType": "uint256",
          "name": "",
          "type": "uint256"
        }
      ],
      "name": "dealInfo",
      "outputs": [
        {
          "internalType": "address",
          "name": "shop",
          "type": "address"
        },
        {
          "internalType": "string",
          "name": "imageURL",
          "type": "string"
        },
        {
          "internalType": "uint256",
          "name": "price",
          "type": "uint256"
        }
      ],
      "stateMutability": "view",
      "type": "function"
    },
    {
      "inputs": [
        {
          "internalType": "string",
          "name": "resourceId",
          "type": "string"
        }
      ],
      "name": "delAccess",
      "outputs": [],
      "stateMutability": "nonpayable",
      "type": "function"
    },
    {
      "inputs": [
        {
          "internalType": "string",
          "name": "resourceId",
          "type": "string"
        }
      ],
      "name": "deleteSubscription",
      "outputs": [],
      "stateMutability": "nonpayable",
      "type": "function"
    },
    {
      "inputs": [
        {
          "internalType": "address",
          "name": "author",
          "type": "address"
        },
        {
          "internalType": "string",
          "name": "resourceId",
          "type": "string"
        }
      ],
      "name": "existAccess",
      "outputs": [
        {
          "internalType": "bool",
          "name": "",
          "type": "bool"
        }
      ],
      "stateMutability": "view",
      "type": "function"
    },
    {
      "inputs": [
        {
          "internalType": "bytes32",
          "name": "hash",
          "type": "bytes32"
        }
      ],
      "name": "existAccess",
      "outputs": [
        {
          "internalType": "bool",
          "name": "",
          "type": "bool"
        }
      ],
      "stateMutability": "view",
      "type": "function"
    },
    {
      "inputs": [
        {
          "internalType": "address",
          "name": "author",
          "type": "address"
        },
        {
          "internalType": "string",
          "name": "resourceId",
          "type": "string"
        }
      ],
      "name": "getAccessControl",
      "outputs": [
        {
          "internalType": "uint256",
          "name": "price",
          "type": "uint256"
        },
        {
          "internalType": "uint32",
          "name": "expirationDuration",
          "type": "uint32"
        }
      ],
      "stateMutability": "view",
      "type": "function"
    },
    {
      "inputs": [
        {
          "internalType": "uint256",
          "name": "tokenId",
          "type": "uint256"
        }
      ],
      "name": "getApproved",
      "outputs": [
        {
          "internalType": "address",
          "name": "",
          "type": "address"
        }
      ],
      "stateMutability": "view",
      "type": "function"
    },
    {
      "inputs": [
        {
          "internalType": "address",
          "name": "shop",
          "type": "address"
        }
      ],
      "name": "getShopSubscriptions",
      "outputs": [
        {
          "components": [
            {
              "internalType": "string",
              "name": "resourceId",
              "type": "string"
            },
            {
              "internalType": "string",
              "name": "imageURL",
              "type": "string"
            },
            {
              "internalType": "uint256",
              "name": "price",
              "type": "uint256"
            },
            {
              "internalType": "uint32",
              "name": "expirationDuration",
              "type": "uint32"
            }
          ],
          "internalType": "struct Pocketsub.SubscriptionDetails[]",
          "name": "",
          "type": "tuple[]"
        }
      ],
      "stateMutability": "view",
      "type": "function"
    },
    {
      "inputs": [
        {
          "internalType": "address",
          "name": "author",
          "type": "address"
        },
        {
          "internalType": "string",
          "name": "resourceId",
          "type": "string"
        },
        {
          "internalType": "address",
          "name": "consumer",
          "type": "address"
        }
      ],
      "name": "hasAccess",
      "outputs": [
        {
          "internalType": "bool",
          "name": "response",
          "type": "bool"
        },
        {
          "internalType": "string",
          "name": "message",
          "type": "string"
        },
        {
          "internalType": "int32",
          "name": "expirationTime",
          "type": "int32"
        }
      ],
      "stateMutability": "view",
      "type": "function"
    },
    {
      "inputs": [
        {
          "internalType": "address",
          "name": "owner",
          "type": "address"
        },
        {
          "internalType": "address",
          "name": "operator",
          "type": "address"
        }
      ],
      "name": "isApprovedForAll",
      "outputs": [
        {
          "internalType": "bool",
          "name": "",
          "type": "bool"
        }
      ],
      "stateMutability": "view",
      "type": "function"
    },
    {
      "inputs": [
        {
          "internalType": "address",
          "name": "shop",
          "type": "address"
        },
        {
          "internalType": "string",
          "name": "resourceId",
          "type": "string"
        },
        {
          "internalType": "address",
          "name": "to",
          "type": "address"
        }
      ],
      "name": "mint",
      "outputs": [],
      "stateMutability": "payable",
      "type": "function"
    },
    {
      "inputs": [],
      "name": "name",
      "outputs": [
        {
          "internalType": "string",
          "name": "",
          "type": "string"
        }
      ],
      "stateMutability": "view",
      "type": "function"
    },
    {
      "inputs": [
        {
          "internalType": "uint256",
          "name": "",
          "type": "uint256"
        }
      ],
      "name": "nftData",
      "outputs": [
        {
          "internalType": "bytes32",
          "name": "hash",
          "type": "bytes32"
        },
        {
          "internalType": "string",
          "name": "resourceId",
          "type": "string"
        },
        {
          "internalType": "uint32",
          "name": "expirationTime",
          "type": "uint32"
        }
      ],
      "stateMutability": "view",
      "type": "function"
    },
    {
      "inputs": [
        {
          "internalType": "uint256",
          "name": "tokenId",
          "type": "uint256"
        }
      ],
      "name": "ownerOf",
      "outputs": [
        {
          "internalType": "address",
          "name": "",
          "type": "address"
        }
      ],
      "stateMutability": "view",
      "type": "function"
    },
    {
      "inputs": [
        {
          "internalType": "address",
          "name": "from",
          "type": "address"
        },
        {
          "internalType": "address",
          "name": "to",
          "type": "address"
        },
        {
          "internalType": "uint256",
          "name": "tokenId",
          "type": "uint256"
        }
      ],
      "name": "safeTransferFrom",
      "outputs": [],
      "stateMutability": "nonpayable",
      "type": "function"
    },
    {
      "inputs": [
        {
          "internalType": "address",
          "name": "from",
          "type": "address"
        },
        {
          "internalType": "address",
          "name": "to",
          "type": "address"
        },
        {
          "internalType": "uint256",
          "name": "tokenId",
          "type": "uint256"
        },
        {
          "internalType": "bytes",
          "name": "data",
          "type": "bytes"
        }
      ],
      "name": "safeTransferFrom",
      "outputs": [],
      "stateMutability": "nonpayable",
      "type": "function"
    },
    {
      "inputs": [
        {
          "internalType": "string",
          "name": "resourceId",
          "type": "string"
        },
        {
          "internalType": "uint256",
          "name": "price",
          "type": "uint256"
        },
        {
          "internalType": "uint32",
          "name": "expirationDuration",
          "type": "uint32"
        }
      ],
      "name": "setAccess",
      "outputs": [],
      "stateMutability": "nonpayable",
      "type": "function"
    },
    {
      "inputs": [
        {
          "internalType": "address",
          "name": "operator",
          "type": "address"
        },
        {
          "internalType": "bool",
          "name": "approved",
          "type": "bool"
        }
      ],
      "name": "setApprovalForAll",
      "outputs": [],
      "stateMutability": "nonpayable",
      "type": "function"
    },
    {
      "inputs": [
        {
          "internalType": "string",
          "name": "resourceId",
          "type": "string"
        },
        {
          "internalType": "uint256",
          "name": "price",
          "type": "uint256"
        },
        {
          "internalType": "uint32",
          "name": "expirationDuration",
          "type": "uint32"
        },
        {
          "internalType": "string",
          "name": "imageURL",
          "type": "string"
        }
      ],
      "name": "setSubscription",
      "outputs": [],
      "stateMutability": "nonpayable",
      "type": "function"
    },
    {
      "inputs": [
        {
          "internalType": "address",
          "name": "",
          "type": "address"
        },
        {
          "internalType": "uint256",
          "name": "",
          "type": "uint256"
        }
      ],
      "name": "shopSubscriptions",
      "outputs": [
        {
          "internalType": "string",
          "name": "resourceId",
          "type": "string"
        },
        {
          "internalType": "string",
          "name": "imageURL",
          "type": "string"
        }
      ],
      "stateMutability": "view",
      "type": "function"
    },
    {
      "inputs": [
        {
          "internalType": "bytes4",
          "name": "interfaceId",
          "type": "bytes4"
        }
      ],
      "name": "supportsInterface",
      "outputs": [
        {
          "internalType": "bool",
          "name": "",
          "type": "bool"
        }
      ],
      "stateMutability": "view",
      "type": "function"
    },
    {
      "inputs": [],
      "name": "symbol",
      "outputs": [
        {
          "internalType": "string",
          "name": "",
          "type": "string"
        }
      ],
      "stateMutability": "view",
      "type": "function"
    },
    {
      "inputs": [
        {
          "internalType": "uint256",
          "name": "index",
          "type": "uint256"
        }
      ],
      "name": "tokenByIndex",
      "outputs": [
        {
          "internalType": "uint256",
          "name": "",
          "type": "uint256"
        }
      ],
      "stateMutability": "view",
      "type": "function"
    },
    {
      "inputs": [
        {
          "internalType": "address",
          "name": "owner",
          "type": "address"
        },
        {
          "internalType": "uint256",
          "name": "index",
          "type": "uint256"
        }
      ],
      "name": "tokenOfOwnerByIndex",
      "outputs": [
        {
          "internalType": "uint256",
          "name": "",
          "type": "uint256"
        }
      ],
      "stateMutability": "view",
      "type": "function"
    },
    {
      "inputs": [
        {
          "internalType": "uint256",
          "name": "id",
          "type": "uint256"
        }
      ],
      "name": "tokenURI",
      "outputs": [
        {
          "internalType": "string",
          "name": "",
          "type": "string"
        }
      ],
      "stateMutability": "view",
      "type": "function"
    },
    {
      "inputs": [],
      "name": "totalSupply",
      "outputs": [
        {
          "internalType": "uint256",
          "name": "",
          "type": "uint256"
        }
      ],
      "stateMutability": "view",
      "type": "function"
    },
    {
      "inputs": [
        {
          "internalType": "address",
          "name": "from",
          "type": "address"
        },
        {
          "internalType": "address",
          "name": "to",
          "type": "address"
        },
        {
          "internalType": "uint256",
          "name": "tokenId",
          "type": "uint256"
        }
      ],
      "name": "transferFrom",
      "outputs": [],
      "stateMutability": "nonpayable",
      "type": "function"
    }
  ],
  "bytecode": "0x60e0604052603f6080818152906200349a60a039600d9062000022908262000149565b503480156200003057600080fd5b50604051806040016040528060098152602001682837b1b5b2ba39bab160b91b81525060405180604001604052806003815260200162504b5360e81b8152508181816000908162000082919062000149565b50600162000091828262000149565b50506001600c555062000215915050565b634e487b7160e01b600052604160045260246000fd5b600181811c90821680620000cd57607f821691505b602082108103620000ee57634e487b7160e01b600052602260045260246000fd5b50919050565b601f82111562000144576000816000526020600020601f850160051c810160208610156200011f5750805b601f850160051c820191505b8181101562000140578281556001016200012b565b5050505b505050565b81516001600160401b03811115620001655762000165620000a2565b6200017d81620001768454620000b8565b84620000f4565b602080601f831160018114620001b557600084156200019c5750858301515b600019600386901b1c1916600185901b17855562000140565b600085815260208120601f198616915b82811015620001e657888601518255948401946001909101908401620001c5565b5085821015620002055787850151600019600388901b60f8161c191681555b5050505050600190811b01905550565b61327580620002256000396000f3fe6080604052600436106101cd5760003560e01c806370a08231116100f7578063a97ae22311610095578063d10e2e1911610064578063d10e2e1914610599578063e985e9c5146105b9578063f5c94ea7146105d9578063fa8509c81461060857600080fd5b8063a97ae22314610519578063ac85162114610539578063b88d4fde14610559578063c87b56dd1461057957600080fd5b806395d89b41116100d157806395d89b41146104975780639f098c4e146104ac578063a13645ce146104cc578063a22cb465146104f957600080fd5b806370a08231146104195780638b6df91a146104395780638c2109751461046857600080fd5b80632c94436f1161016f5780634f6ccce71161013e5780634f6ccce71461038b578063513896af146103ab57806357fe5336146103cb5780636352211e146103f957600080fd5b80632c94436f146102e25780632f745c591461031157806340735c5b1461033157806342842e0e1461036b57600080fd5b8063095ea7b3116101ab578063095ea7b3146102615780630aa568111461028357806318160ddd146102a357806323b872dd146102c257600080fd5b806301ffc9a7146101d257806306fdde0314610207578063081812fc14610229575b600080fd5b3480156101de57600080fd5b506101f26101ed366004612561565b61061b565b60405190151581526020015b60405180910390f35b34801561021357600080fd5b5061021c61062c565b6040516101fe91906125d5565b34801561023557600080fd5b506102496102443660046125e8565b6106be565b6040516001600160a01b0390911681526020016101fe565b34801561026d57600080fd5b5061028161027c36600461261d565b6106e7565b005b34801561028f57600080fd5b5061028161029e3660046126a2565b6106f6565b3480156102af57600080fd5b506008545b6040519081526020016101fe565b3480156102ce57600080fd5b506102816102dd366004612701565b610709565b3480156102ee57600080fd5b506103026102fd36600461273d565b610793565b6040516101fe939291906127a2565b34801561031d57600080fd5b506102b461032c36600461261d565b610a39565b34801561033d57600080fd5b5061035161034c3660046127d0565b610a9e565b6040805192835263ffffffff9091166020830152016101fe565b34801561037757600080fd5b50610281610386366004612701565b610adb565b34801561039757600080fd5b506102b46103a63660046125e8565b610afb565b3480156103b757600080fd5b506102816103c6366004612823565b610b54565b3480156103d757600080fd5b506103eb6103e636600461261d565b610c2f565b6040516101fe9291906128b1565b34801561040557600080fd5b506102496104143660046125e8565b610d80565b34801561042557600080fd5b506102b46104343660046128df565b610d8b565b34801561044557600080fd5b506104596104543660046125e8565b610dd3565b6040516101fe939291906128fa565b34801561047457600080fd5b506104886104833660046125e8565b610e84565b6040516101fe93929190612929565b3480156104a357600080fd5b5061021c610f35565b3480156104b857600080fd5b506101f26104c73660046127d0565b610f44565b3480156104d857600080fd5b506104ec6104e73660046128df565b610fbe565b6040516101fe9190612958565b34801561050557600080fd5b50610281610514366004612a09565b6112ff565b34801561052557600080fd5b50610281610534366004612a40565b61130a565b34801561054557600080fd5b50610281610554366004612a40565b61134d565b34801561056557600080fd5b50610281610574366004612a98565b6114a8565b34801561058557600080fd5b5061021c6105943660046125e8565b6114bf565b3480156105a557600080fd5b506101f26105b43660046125e8565b611645565b3480156105c557600080fd5b506101f26105d4366004612b74565b611667565b3480156105e557600080fd5b506105f96105f43660046125e8565b611695565b6040516101fe93929190612ba7565b61028161061636600461273d565b61174a565b600061062682611989565b92915050565b60606000805461063b90612bdb565b80601f016020809104026020016040519081016040528092919081815260200182805461066790612bdb565b80156106b45780601f10610689576101008083540402835291602001916106b4565b820191906000526020600020905b81548152906001019060200180831161069757829003601f168201915b5050505050905090565b60006106c9826119ae565b506000828152600460205260409020546001600160a01b0316610626565b6106f28282336119e7565b5050565b61070333858585856119f4565b50505050565b6001600160a01b03821661073857604051633250574960e11b8152600060048201526024015b60405180910390fd5b6000610745838333611aa1565b9050836001600160a01b0316816001600160a01b031614610703576040516364283d7b60e01b81526001600160a01b038086166004830152602482018490528216604482015260640161072f565b600060606000806107a5888888611aae565b60405163d10e2e1960e01b815260048101829052909150309063d10e2e1990602401602060405180830381865afa1580156107e4573d6000803e3d6000fd5b505050506040513d601f19601f820116820180604052508101906108089190612c15565b6108475750506040805180820190915260148152731858d8d95cdcc8191bd95cdb89dd08195e1a5cdd60621b6020820152600092509050600019610a2f565b6000805b61085487610d8b565b8110156109aa5760006108678883610a39565b90506000600b6000838152602001908152602001600020604051806060016040529081600082015481526020016001820180546108a390612bdb565b80601f01602080910402602001604051908101604052809291908181526020018280546108cf90612bdb565b801561091c5780601f106108f15761010080835404028352916020019161091c565b820191906000526020600020905b8154815290600101906020018083116108ff57829003601f168201915b50505091835250506002919091015463ffffffff16602090910152805190915085900361099f57806040015163ffffffff16421115610960576001935050506109a2565b600181604001516040518060400160405280600e81526020016d1858d8d95cdcc819dc985b9d195960921b815250909750975097505050505050610a2f565b50505b60010161084b565b50806109f15760006000196040518060400160405280601881526020017f7573657220646f65736e2774206f776e20746865204e4654000000000000000081525090610a22565b6000600019604051806040016040528060118152602001701858d8d95cdcc81a5cc8195e1c1a5c9959607a1b815250905b919650945060000b925050505b9450945094915050565b6000610a4483610d8b565b8210610a755760405163295f44f760e21b81526001600160a01b03841660048201526024810183905260440161072f565b506001600160a01b03919091166000908152600660209081526040808320938352929052205490565b6000806000610aae868686611aae565b6000908152600a60205260409020600181015460029091015490935063ffffffff16915050935093915050565b610af6838383604051806020016040528060008152506114a8565b505050565b6000610b0660085490565b8210610b2f5760405163295f44f760e21b8152600060048201526024810183905260440161072f565b60088281548110610b4257610b42612c32565b90600052602060002001549050919050565b336000908152600e602090815260409182902082516060601f8a018490049093028101830184529283018881529092918291908a908a9081908501838280828437600092019190915250505090825250604080516020601f8701819004810282018101909252858152918101919086908690819084018382808284376000920182905250939094525050835460018101855593815260209020825192936002020191829150610c039082612c90565b5060208201516001820190610c189082612c90565b505050610c27868686866106f6565b505050505050565b600e6020528160005260406000208181548110610c4b57600080fd5b906000526020600020906002020160009150915050806000018054610c6f90612bdb565b80601f0160208091040260200160405190810160405280929190818152602001828054610c9b90612bdb565b8015610ce85780601f10610cbd57610100808354040283529160200191610ce8565b820191906000526020600020905b815481529060010190602001808311610ccb57829003601f168201915b505050505090806001018054610cfd90612bdb565b80601f0160208091040260200160405190810160405280929190818152602001828054610d2990612bdb565b8015610d765780601f10610d4b57610100808354040283529160200191610d76565b820191906000526020600020905b815481529060010190602001808311610d5957829003601f168201915b5050505050905082565b6000610626826119ae565b60006001600160a01b038216610db7576040516322718ad960e21b81526000600482015260240161072f565b506001600160a01b031660009081526003602052604090205490565b600a60205260009081526040902080548190610dee90612bdb565b80601f0160208091040260200160405190810160405280929190818152602001828054610e1a90612bdb565b8015610e675780601f10610e3c57610100808354040283529160200191610e67565b820191906000526020600020905b815481529060010190602001808311610e4a57829003601f168201915b50505050600183015460029093015491929163ffffffff16905083565b600b6020526000908152604090208054600182018054919291610ea690612bdb565b80601f0160208091040260200160405190810160405280929190818152602001828054610ed290612bdb565b8015610f1f5780601f10610ef457610100808354040283529160200191610f1f565b820191906000526020600020905b815481529060010190602001808311610f0257829003601f168201915b5050506002909301549192505063ffffffff1683565b60606001805461063b90612bdb565b60003063d10e2e19610f57868686611aae565b6040518263ffffffff1660e01b8152600401610f7591815260200190565b602060405180830381865afa158015610f92573d6000803e3d6000fd5b505050506040513d601f19601f82011682018060405250810190610fb69190612c15565b949350505050565b6001600160a01b0381166000908152600e60205260408120546060918167ffffffffffffffff811115610ff357610ff3612a82565b60405190808252806020026020018201604052801561105557816020015b6110426040518060800160405280606081526020016060815260200160008152602001600063ffffffff1681525090565b8152602001906001900390816110115790505b50905060005b828110156112f7576001600160a01b0385166000908152600e602052604081208054829130916340735c5b918a918790811061109957611099612c32565b90600052602060002090600202016000016040518363ffffffff1660e01b81526004016110c7929190612d50565b6040805180830381865afa1580156110e3573d6000803e3d6000fd5b505050506040513d601f19601f820116820180604052508101906111079190612df0565b915091506040518060800160405280600e60008a6001600160a01b03166001600160a01b03168152602001908152602001600020858154811061114c5761114c612c32565b9060005260206000209060020201600001805461116890612bdb565b80601f016020809104026020016040519081016040528092919081815260200182805461119490612bdb565b80156111e15780601f106111b6576101008083540402835291602001916111e1565b820191906000526020600020905b8154815290600101906020018083116111c457829003601f168201915b50505050508152602001600e60008a6001600160a01b03166001600160a01b03168152602001908152602001600020858154811061122157611221612c32565b9060005260206000209060020201600101805461123d90612bdb565b80601f016020809104026020016040519081016040528092919081815260200182805461126990612bdb565b80156112b65780601f1061128b576101008083540402835291602001916112b6565b820191906000526020600020905b81548152906001019060200180831161129957829003601f168201915b505050505081526020018381526020018263ffffffff168152508484815181106112e2576112e2612c32565b6020908102919091010152505060010161105b565b509392505050565b6106f2338383611ae4565b6000611317338484611aae565b6000818152600a6020526040812091925061133282826124f5565b5060006001820155600201805463ffffffff19169055505050565b336000908152600e60205260408120805490915b8181101561149d57848460405160200161137c929190612e15565b604051602081830303815290604052805190602001208382815481106113a4576113a4612c32565b90600052602060002090600202016000016040516020016113c59190612e98565b604051602081830303815290604052805190602001200361149557826113ec600184612eba565b815481106113fc576113fc612c32565b906000526020600020906002020183828154811061141c5761141c612c32565b60009182526020909120600290910201806114378382612ecd565b5060018181019061144a90840182612ecd565b509050508280548061145e5761145e612fa0565b6000828152602081206000199092019160028302019061147e82826124f5565b61148c6001830160006124f5565b5050905561149d565b600101611361565b50610703848461130a565b6114b3848484610709565b61070384848484611b83565b6000818152600b602090815260408083209051606093926114e4926001019101612fb6565b604051602081830303815290604052600f60008581526020019081526020016000206001016040516020016115199190612fd5565b60408051601f198184030181529082905261153691602001612ff5565b60408051601f198184030181529082905261155492916020016130c5565b604051602081830303815290604052600d6040516020016115759190612e98565b60408051601f198184030181529082905261159392916020016130c5565b60408051601f1981840301815260808301909152605c808352909250600091906131e4602083013990506000604051806040016040528060038152602001627d5d7d60e81b815250905082826040516020016115f09291906130c5565b60408051601f198184030181529082905261160f9183906020016130c5565b60408051601f198184030181529082905261162c916020016130f4565b6040516020818303038152906040529350505050919050565b6000818152600a60205260408120805461165e90612bdb565b15159392505050565b6001600160a01b03918216600090815260056020908152604080832093909416825291909152205460ff1690565b600f60205260009081526040902080546001820180546001600160a01b0390921692916116c190612bdb565b80601f01602080910402602001604051908101604052809291908181526020018280546116ed90612bdb565b801561173a5780601f1061170f5761010080835404028352916020019161173a565b820191906000526020600020905b81548152906001019060200180831161171d57829003601f168201915b5050505050908060020154905083565b611752611cac565b61175e84848484611cd6565b6001600160a01b0384166000908152600e60209081526040808320548151928301909152828252915b828110156118f15785856040516020016117a2929190612e15565b60408051601f1981840301815291815281516020928301206001600160a01b038a166000908152600e90935291208054839081106117e2576117e2612c32565b90600052602060002090600202016000016040516020016118039190612e98565b60405160208183030381529060405280519060200120036118e9576001600160a01b0387166000908152600e6020526040902080548290811061184857611848612c32565b9060005260206000209060020201600101805461186490612bdb565b80601f016020809104026020016040519081016040528092919081815260200182805461189090612bdb565b80156118dd5780601f106118b2576101008083540402835291602001916118dd565b820191906000526020600020905b8154815290600101906020018083116118c057829003601f168201915b505050505091506118f1565b600101611787565b506040518060600160405280876001600160a01b0316815260200182815260200134815250600f6000600161192560085490565b61192f9190612eba565b8152602080820192909252604001600020825181546001600160a01b0319166001600160a01b0390911617815590820151600182019061196f9082612c90565b506040820151816002015590505050506107036001600c55565b60006001600160e01b0319821663780e9d6360e01b1480610626575061062682611eec565b6000818152600260205260408120546001600160a01b03168061062657604051637e27328960e01b81526004810184905260240161072f565b610af68383836001611f3c565b6000611a01868686611aae565b6040805160806020601f890181900402820181019092526060810187815292935091829188908890819085018382808284376000920182905250938552505050602080830187905263ffffffff8616604093840152848252600a90522081518190611a6c9082612c90565b50602082015160018201556040909101516002909101805463ffffffff191663ffffffff909216919091179055505050505050565b6000610fb6848484612042565b6000838383604051602001611ac593929190613139565b6040516020818303038152906040528051906020012090509392505050565b6001600160a01b038216611b1657604051630b61174360e31b81526001600160a01b038316600482015260240161072f565b6001600160a01b03838116600081815260056020908152604080832094871680845294825291829020805460ff191686151590811790915591519182527f17307eab39ab6107e8899845ad3d59bd9653f200f220920489ca2b5937696c31910160405180910390a3505050565b6001600160a01b0383163b1561070357604051630a85bd0160e11b81526001600160a01b0384169063150b7a0290611bc5903390889087908790600401613165565b6020604051808303816000875af1925050508015611c00575060408051601f3d908101601f19168201909252611bfd918101906131a2565b60015b611c69573d808015611c2e576040519150601f19603f3d011682016040523d82523d6000602084013e611c33565b606091505b508051600003611c6157604051633250574960e11b81526001600160a01b038516600482015260240161072f565b805181602001fd5b6001600160e01b03198116630a85bd0160e11b14611ca557604051633250574960e11b81526001600160a01b038516600482015260240161072f565b5050505050565b6002600c5403611ccf57604051633ee5aeb560e01b815260040160405180910390fd5b6002600c55565b6000611ce3858585611aae565b60405163d10e2e1960e01b815260048101829052909150309063d10e2e1990602401602060405180830381865afa158015611d22573d6000803e3d6000fd5b505050506040513d601f19601f82011682018060405250810190611d469190612c15565b611d6657604051636bbe423d60e11b81526004810182905260240161072f565b6000818152600a602052604090206001015434811115611d9c576040516365bc667160e11b81526004810182905260240161072f565b6000611da760085490565b90506040518060600160405280848152602001600a60008681526020019081526020016000206000018054611ddb90612bdb565b80601f0160208091040260200160405190810160405280929190818152602001828054611e0790612bdb565b8015611e545780601f10611e2957610100808354040283529160200191611e54565b820191906000526020600020905b815481529060010190602001808311611e3757829003601f168201915b50505091835250506000858152600a6020908152604090912060020154910190611e8590429063ffffffff166131bf565b63ffffffff1690526000828152600b6020908152604090912082518155908201516001820190611eb59082612c90565b50604091909101516002909101805463ffffffff191663ffffffff909216919091179055611ee3848261210f565b50505050505050565b60006001600160e01b031982166380ac58cd60e01b1480611f1d57506001600160e01b03198216635b5e139f60e01b145b8061062657506301ffc9a760e01b6001600160e01b0319831614610626565b8080611f5057506001600160a01b03821615155b15612012576000611f60846119ae565b90506001600160a01b03831615801590611f8c5750826001600160a01b0316816001600160a01b031614155b8015611f9f5750611f9d8184611667565b155b15611fc85760405163a9fbf51f60e01b81526001600160a01b038416600482015260240161072f565b81156120105783856001600160a01b0316826001600160a01b03167f8c5be1e5ebec7d5bd14f71427d1e84f3dd0314c0f7b2291e5b200ac8c7c3b92560405160405180910390a45b505b5050600090815260046020526040902080546001600160a01b0319166001600160a01b0392909216919091179055565b600080612050858585612129565b90506001600160a01b0381166120ad576120a884600880546000838152600960205260408120829055600182018355919091527ff3f7a9fe364faab93b216da50a3214154f22a0a2b415b23a84c8169e8b636ee30155565b6120d0565b846001600160a01b0316816001600160a01b0316146120d0576120d08185612222565b6001600160a01b0385166120ec576120e7846122b3565b610fb6565b846001600160a01b0316816001600160a01b031614610fb657610fb68585612362565b6106f28282604051806020016040528060008152506123b2565b6000828152600260205260408120546001600160a01b0390811690831615612156576121568184866123c9565b6001600160a01b0381161561219457612173600085600080611f3c565b6001600160a01b038116600090815260036020526040902080546000190190555b6001600160a01b038516156121c3576001600160a01b0385166000908152600360205260409020805460010190555b60008481526002602052604080822080546001600160a01b0319166001600160a01b0389811691821790925591518793918516917fddf252ad1be2c89b69c2b068fc378daa952ba7f163c4a11628f55a4df523b3ef91a4949350505050565b600061222d83610d8b565b600083815260076020526040902054909150808214612280576001600160a01b03841660009081526006602090815260408083208584528252808320548484528184208190558352600790915290208190555b5060009182526007602090815260408084208490556001600160a01b039094168352600681528383209183525290812055565b6008546000906122c590600190612eba565b600083815260096020526040812054600880549394509092849081106122ed576122ed612c32565b90600052602060002001549050806008838154811061230e5761230e612c32565b600091825260208083209091019290925582815260099091526040808220849055858252812055600880548061234657612346612fa0565b6001900381819060005260206000200160009055905550505050565b6000600161236f84610d8b565b6123799190612eba565b6001600160a01b039093166000908152600660209081526040808320868452825280832085905593825260079052919091209190915550565b6123bc838361242d565b610af66000848484611b83565b6123d4838383612492565b610af6576001600160a01b03831661240257604051637e27328960e01b81526004810182905260240161072f565b60405163177e802f60e01b81526001600160a01b03831660048201526024810182905260440161072f565b6001600160a01b03821661245757604051633250574960e11b81526000600482015260240161072f565b600061246583836000611aa1565b90506001600160a01b03811615610af6576040516339e3563760e11b81526000600482015260240161072f565b60006001600160a01b03831615801590610fb65750826001600160a01b0316846001600160a01b031614806124cc57506124cc8484611667565b80610fb65750506000908152600460205260409020546001600160a01b03908116911614919050565b50805461250190612bdb565b6000825580601f10612511575050565b601f01602090049060005260206000209081019061252f9190612532565b50565b5b808211156125475760008155600101612533565b5090565b6001600160e01b03198116811461252f57600080fd5b60006020828403121561257357600080fd5b813561257e8161254b565b9392505050565b60005b838110156125a0578181015183820152602001612588565b50506000910152565b600081518084526125c1816020860160208601612585565b601f01601f19169290920160200192915050565b60208152600061257e60208301846125a9565b6000602082840312156125fa57600080fd5b5035919050565b80356001600160a01b038116811461261857600080fd5b919050565b6000806040838503121561263057600080fd5b61263983612601565b946020939093013593505050565b60008083601f84011261265957600080fd5b50813567ffffffffffffffff81111561267157600080fd5b60208301915083602082850101111561268957600080fd5b9250929050565b63ffffffff8116811461252f57600080fd5b600080600080606085870312156126b857600080fd5b843567ffffffffffffffff8111156126cf57600080fd5b6126db87828801612647565b9095509350506020850135915060408501356126f681612690565b939692955090935050565b60008060006060848603121561271657600080fd5b61271f84612601565b925061272d60208501612601565b9150604084013590509250925092565b6000806000806060858703121561275357600080fd5b61275c85612601565b9350602085013567ffffffffffffffff81111561277857600080fd5b61278487828801612647565b9094509250612797905060408601612601565b905092959194509250565b83151581526060602082015260006127bd60608301856125a9565b90508260030b6040830152949350505050565b6000806000604084860312156127e557600080fd5b6127ee84612601565b9250602084013567ffffffffffffffff81111561280a57600080fd5b61281686828701612647565b9497909650939450505050565b6000806000806000806080878903121561283c57600080fd5b863567ffffffffffffffff8082111561285457600080fd5b6128608a838b01612647565b9098509650602089013595506040890135915061287c82612690565b9093506060880135908082111561289257600080fd5b5061289f89828a01612647565b979a9699509497509295939492505050565b6040815260006128c460408301856125a9565b82810360208401526128d681856125a9565b95945050505050565b6000602082840312156128f157600080fd5b61257e82612601565b60608152600061290d60608301866125a9565b905083602083015263ffffffff83166040830152949350505050565b83815260606020820152600061294260608301856125a9565b905063ffffffff83166040830152949350505050565b600060208083018184528085518083526040925060408601915060408160051b87010184880160005b838110156129ed57603f198984030185528151608081518186526129a7828701826125a9565b915050888201518582038a8701526129bf82826125a9565b838a0151878b015260609384015163ffffffff16939096019290925250509386019390860190600101612981565b509098975050505050505050565b801515811461252f57600080fd5b60008060408385031215612a1c57600080fd5b612a2583612601565b91506020830135612a35816129fb565b809150509250929050565b60008060208385031215612a5357600080fd5b823567ffffffffffffffff811115612a6a57600080fd5b612a7685828601612647565b90969095509350505050565b634e487b7160e01b600052604160045260246000fd5b60008060008060808587031215612aae57600080fd5b612ab785612601565b9350612ac560208601612601565b925060408501359150606085013567ffffffffffffffff80821115612ae957600080fd5b818701915087601f830112612afd57600080fd5b813581811115612b0f57612b0f612a82565b604051601f8201601f19908116603f01168101908382118183101715612b3757612b37612a82565b816040528281528a6020848701011115612b5057600080fd5b82602086016020830137600060208483010152809550505050505092959194509250565b60008060408385031215612b8757600080fd5b612b9083612601565b9150612b9e60208401612601565b90509250929050565b6001600160a01b0384168152606060208201819052600090612bcb908301856125a9565b9050826040830152949350505050565b600181811c90821680612bef57607f821691505b602082108103612c0f57634e487b7160e01b600052602260045260246000fd5b50919050565b600060208284031215612c2757600080fd5b815161257e816129fb565b634e487b7160e01b600052603260045260246000fd5b601f821115610af6576000816000526020600020601f850160051c81016020861015612c715750805b601f850160051c820191505b81811015610c2757828155600101612c7d565b815167ffffffffffffffff811115612caa57612caa612a82565b612cbe81612cb88454612bdb565b84612c48565b602080601f831160018114612cf35760008415612cdb5750858301515b600019600386901b1c1916600185901b178555610c27565b600085815260208120601f198616915b82811015612d2257888601518255948401946001909101908401612d03565b5085821015612d405787850151600019600388901b60f8161c191681555b5050505050600190811b01905550565b60018060a01b0383168152600060206040602084015260008454612d7381612bdb565b8060408701526060600180841660008114612d955760018114612db157612de1565b60ff19851660608a0152606084151560051b8a01019550612de1565b89600052602060002060005b85811015612dd85781548b8201860152908301908801612dbd565b8a016060019650505b50939998505050505050505050565b60008060408385031215612e0357600080fd5b825191506020830151612a3581612690565b8183823760009101908152919050565b60008154612e3281612bdb565b60018281168015612e4a5760018114612e5f57612e8e565b60ff1984168752821515830287019450612e8e565b8560005260208060002060005b85811015612e855781548a820152908401908201612e6c565b50505082870194505b5050505092915050565b600061257e8284612e25565b634e487b7160e01b600052601160045260246000fd5b8181038181111561062657610626612ea4565b818103612ed8575050565b612ee28254612bdb565b67ffffffffffffffff811115612efa57612efa612a82565b612f0881612cb88454612bdb565b6000601f821160018114612f3c5760008315612f245750848201545b600019600385901b1c1916600184901b178455611ca5565b600085815260209020601f19841690600086815260209020845b83811015612f765782860154825560019586019590910190602001612f56565b5085831015612d405793015460001960f8600387901b161c19169092555050600190811b01905550565b634e487b7160e01b600052603160045260246000fd5b693d913730b6b2911d101160b11b8152600061257e600a830184612e25565b6a11161134b6b0b3b2911d1160a91b8152600061257e600b830184612e25565b7f222c226465736372697074696f6e223a225768617420796f7520617265206c6f81527f6f6b696e672061742069732061204e465420737562736372697074696f6e2e2260208201527f2c2265787465726e616c5f75726c223a2268747470733a2f2f706f636b65747360408201527f75622e696f2f307839306438374366436546306438303538426644623238363260608201526f219818211a9a991a9a9a9b191a99a31960811b6080820152600082516130b8816090850160208701612585565b9190910160900192915050565b600083516130d7818460208801612585565b8351908301906130eb818360208801612585565b01949350505050565b7f646174613a6170706c69636174696f6e2f6a736f6e3b757466382c000000000081526000825161312c81601b850160208701612585565b91909101601b0192915050565b6bffffffffffffffffffffffff198460601b168152818360148301376000910160140190815292915050565b6001600160a01b0385811682528416602082015260408101839052608060608201819052600090613198908301846125a9565b9695505050505050565b6000602082840312156131b457600080fd5b815161257e8161254b565b63ffffffff8181168382160190808211156131dc576131dc612ea4565b509291505056fe222c2261747472696275746573223a5b7b22646973706c61795f74797065223a202264617465222c202274726169745f74797065223a202245787069726174696f6e2064617465222c2276616c7565223a2031353436333630383030a26469706673582212202a177076a51ae2cddba1d571f251d7fa75a346bd7acf6560a80c2114b5cd2c2e64736f6c6343000818003368747470733a2f2f617277656176652e6e65742f3975306367546d6b534d323550665170475a2d4a7a73706a4f4d66347547466a6b764f664b6a67516e5659",
  "linkReferences": {},
  "deployedLinkReferences": {}
}