{
  "_format": "hh-sol-artifact-1",
  "contractName": "Pocketsub",
  "sourceName": "contracts/Pocketsub.sol",
  "abi": [
    {
      "inputs": [],
      "stateMutability": "nonpayable",
      "type": "constructor"
    },
    {
      "inputs": [],
      "name": "ERC721EnumerableForbiddenBatchMint",
      "type": "error"
    },
    {
      "inputs": [
        {
          "internalType": "address",
          "name": "sender",
          "type": "address"
        },
        {
          "internalType": "uint256",
          "name": "tokenId",
          "type": "uint256"
        },
        {
          "internalType": "address",
          "name": "owner",
          "type": "address"
        }
      ],
      "name": "ERC721IncorrectOwner",
      "type": "error"
    },
    {
      "inputs": [
        {
          "internalType": "address",
          "name": "operator",
          "type": "address"
        },
        {
          "internalType": "uint256",
          "name": "tokenId",
          "type": "uint256"
        }
      ],
      "name": "ERC721InsufficientApproval",
      "type": "error"
    },
    {
      "inputs": [
        {
          "internalType": "address",
          "name": "approver",
          "type": "address"
        }
      ],
      "name": "ERC721InvalidApprover",
      "type": "error"
    },
    {
      "inputs": [
        {
          "internalType": "address",
          "name": "operator",
          "type": "address"
        }
      ],
      "name": "ERC721InvalidOperator",
      "type": "error"
    },
    {
      "inputs": [
        {
          "internalType": "address",
          "name": "owner",
          "type": "address"
        }
      ],
      "name": "ERC721InvalidOwner",
      "type": "error"
    },
    {
      "inputs": [
        {
          "internalType": "address",
          "name": "receiver",
          "type": "address"
        }
      ],
      "name": "ERC721InvalidReceiver",
      "type": "error"
    },
    {
      "inputs": [
        {
          "internalType": "address",
          "name": "sender",
          "type": "address"
        }
      ],
      "name": "ERC721InvalidSender",
      "type": "error"
    },
    {
      "inputs": [
        {
          "internalType": "uint256",
          "name": "tokenId",
          "type": "uint256"
        }
      ],
      "name": "ERC721NonexistentToken",
      "type": "error"
    },
    {
      "inputs": [
        {
          "internalType": "address",
          "name": "owner",
          "type": "address"
        },
        {
          "internalType": "uint256",
          "name": "index",
          "type": "uint256"
        }
      ],
      "name": "ERC721OutOfBoundsIndex",
      "type": "error"
    },
    {
      "inputs": [
        {
          "internalType": "uint256",
          "name": "expectedPrice",
          "type": "uint256"
        }
      ],
      "name": "InsufficientFunds",
      "type": "error"
    },
    {
      "inputs": [
        {
          "internalType": "bytes32",
          "name": "accessHash",
          "type": "bytes32"
        }
      ],
      "name": "MintUnavailable",
      "type": "error"
    },
    {
      "anonymous": false,
      "inputs": [
        {
          "indexed": true,
          "internalType": "address",
          "name": "owner",
          "type": "address"
        },
        {
          "indexed": true,
          "internalType": "address",
          "name": "approved",
          "type": "address"
        },
        {
          "indexed": true,
          "internalType": "uint256",
          "name": "tokenId",
          "type": "uint256"
        }
      ],
      "name": "Approval",
      "type": "event"
    },
    {
      "anonymous": false,
      "inputs": [
        {
          "indexed": true,
          "internalType": "address",
          "name": "owner",
          "type": "address"
        },
        {
          "indexed": true,
          "internalType": "address",
          "name": "operator",
          "type": "address"
        },
        {
          "indexed": false,
          "internalType": "bool",
          "name": "approved",
          "type": "bool"
        }
      ],
      "name": "ApprovalForAll",
      "type": "event"
    },
    {
      "anonymous": false,
      "inputs": [
        {
          "indexed": true,
          "internalType": "address",
          "name": "from",
          "type": "address"
        },
        {
          "indexed": true,
          "internalType": "address",
          "name": "to",
          "type": "address"
        },
        {
          "indexed": true,
          "internalType": "uint256",
          "name": "tokenId",
          "type": "uint256"
        }
      ],
      "name": "Transfer",
      "type": "event"
    },
    {
      "inputs": [
        {
          "internalType": "bytes32",
          "name": "",
          "type": "bytes32"
        }
      ],
      "name": "accessControl",
      "outputs": [
        {
          "internalType": "string",
          "name": "resourceId",
          "type": "string"
        },
        {
          "internalType": "uint256",
          "name": "price",
          "type": "uint256"
        },
        {
          "internalType": "uint32",
          "name": "expirationDuration",
          "type": "uint32"
        }
      ],
      "stateMutability": "view",
      "type": "function"
    },
    {
      "inputs": [
        {
          "internalType": "address",
          "name": "to",
          "type": "address"
        },
        {
          "internalType": "uint256",
          "name": "tokenId",
          "type": "uint256"
        }
      ],
      "name": "approve",
      "outputs": [],
      "stateMutability": "nonpayable",
      "type": "function"
    },
    {
      "inputs": [
        {
          "internalType": "address",
          "name": "owner",
          "type": "address"
        }
      ],
      "name": "balanceOf",
      "outputs": [
        {
          "internalType": "uint256",
          "name": "",
          "type": "uint256"
        }
      ],
      "stateMutability": "view",
      "type": "function"
    },
    {
      "inputs": [
        {
          "internalType": "string",
          "name": "resourceId",
          "type": "string"
        }
      ],
      "name": "delAccess",
      "outputs": [],
      "stateMutability": "nonpayable",
      "type": "function"
    },
    {
      "inputs": [
        {
          "internalType": "address",
          "name": "author",
          "type": "address"
        },
        {
          "internalType": "string",
          "name": "resourceId",
          "type": "string"
        }
      ],
      "name": "existAccess",
      "outputs": [
        {
          "internalType": "bool",
          "name": "",
          "type": "bool"
        }
      ],
      "stateMutability": "view",
      "type": "function"
    },
    {
      "inputs": [
        {
          "internalType": "bytes32",
          "name": "hash",
          "type": "bytes32"
        }
      ],
      "name": "existAccess",
      "outputs": [
        {
          "internalType": "bool",
          "name": "",
          "type": "bool"
        }
      ],
      "stateMutability": "view",
      "type": "function"
    },
    {
      "inputs": [
        {
          "internalType": "address",
          "name": "author",
          "type": "address"
        },
        {
          "internalType": "string",
          "name": "resourceId",
          "type": "string"
        }
      ],
      "name": "getAccessControl",
      "outputs": [
        {
          "internalType": "uint256",
          "name": "price",
          "type": "uint256"
        },
        {
          "internalType": "uint32",
          "name": "expirationDuration",
          "type": "uint32"
        }
      ],
      "stateMutability": "view",
      "type": "function"
    },
    {
      "inputs": [
        {
          "internalType": "uint256",
          "name": "tokenId",
          "type": "uint256"
        }
      ],
      "name": "getApproved",
      "outputs": [
        {
          "internalType": "address",
          "name": "",
          "type": "address"
        }
      ],
      "stateMutability": "view",
      "type": "function"
    },
    {
      "inputs": [
        {
          "internalType": "address",
          "name": "shop",
          "type": "address"
        }
      ],
      "name": "getShopSubscriptions",
      "outputs": [
        {
          "components": [
            {
              "internalType": "string",
              "name": "resourceId",
              "type": "string"
            },
            {
              "internalType": "string",
              "name": "imageURL",
              "type": "string"
            },
            {
              "internalType": "uint256",
              "name": "price",
              "type": "uint256"
            },
            {
              "internalType": "uint32",
              "name": "expirationDuration",
              "type": "uint32"
            }
          ],
          "internalType": "struct Pocketsub.SubscriptionDetails[]",
          "name": "",
          "type": "tuple[]"
        }
      ],
      "stateMutability": "view",
      "type": "function"
    },
    {
      "inputs": [
        {
          "internalType": "address",
          "name": "author",
          "type": "address"
        },
        {
          "internalType": "string",
          "name": "resourceId",
          "type": "string"
        },
        {
          "internalType": "address",
          "name": "consumer",
          "type": "address"
        }
      ],
      "name": "hasAccess",
      "outputs": [
        {
          "internalType": "bool",
          "name": "response",
          "type": "bool"
        },
        {
          "internalType": "string",
          "name": "message",
          "type": "string"
        },
        {
          "internalType": "int32",
          "name": "expirationTime",
          "type": "int32"
        }
      ],
      "stateMutability": "view",
      "type": "function"
    },
    {
      "inputs": [
        {
          "internalType": "address",
          "name": "owner",
          "type": "address"
        },
        {
          "internalType": "address",
          "name": "operator",
          "type": "address"
        }
      ],
      "name": "isApprovedForAll",
      "outputs": [
        {
          "internalType": "bool",
          "name": "",
          "type": "bool"
        }
      ],
      "stateMutability": "view",
      "type": "function"
    },
    {
      "inputs": [
        {
          "internalType": "address",
          "name": "author",
          "type": "address"
        },
        {
          "internalType": "string",
          "name": "resourceId",
          "type": "string"
        },
        {
          "internalType": "address",
          "name": "to",
          "type": "address"
        }
      ],
      "name": "mint",
      "outputs": [],
      "stateMutability": "payable",
      "type": "function"
    },
    {
      "inputs": [],
      "name": "name",
      "outputs": [
        {
          "internalType": "string",
          "name": "",
          "type": "string"
        }
      ],
      "stateMutability": "view",
      "type": "function"
    },
    {
      "inputs": [
        {
          "internalType": "uint256",
          "name": "",
          "type": "uint256"
        }
      ],
      "name": "nftData",
      "outputs": [
        {
          "internalType": "bytes32",
          "name": "hash",
          "type": "bytes32"
        },
        {
          "internalType": "string",
          "name": "resourceId",
          "type": "string"
        },
        {
          "internalType": "uint32",
          "name": "expirationTime",
          "type": "uint32"
        }
      ],
      "stateMutability": "view",
      "type": "function"
    },
    {
      "inputs": [
        {
          "internalType": "uint256",
          "name": "tokenId",
          "type": "uint256"
        }
      ],
      "name": "ownerOf",
      "outputs": [
        {
          "internalType": "address",
          "name": "",
          "type": "address"
        }
      ],
      "stateMutability": "view",
      "type": "function"
    },
    {
      "inputs": [
        {
          "internalType": "address",
          "name": "from",
          "type": "address"
        },
        {
          "internalType": "address",
          "name": "to",
          "type": "address"
        },
        {
          "internalType": "uint256",
          "name": "tokenId",
          "type": "uint256"
        }
      ],
      "name": "safeTransferFrom",
      "outputs": [],
      "stateMutability": "nonpayable",
      "type": "function"
    },
    {
      "inputs": [
        {
          "internalType": "address",
          "name": "from",
          "type": "address"
        },
        {
          "internalType": "address",
          "name": "to",
          "type": "address"
        },
        {
          "internalType": "uint256",
          "name": "tokenId",
          "type": "uint256"
        },
        {
          "internalType": "bytes",
          "name": "data",
          "type": "bytes"
        }
      ],
      "name": "safeTransferFrom",
      "outputs": [],
      "stateMutability": "nonpayable",
      "type": "function"
    },
    {
      "inputs": [
        {
          "internalType": "string",
          "name": "resourceId",
          "type": "string"
        },
        {
          "internalType": "uint256",
          "name": "price",
          "type": "uint256"
        },
        {
          "internalType": "uint32",
          "name": "expirationDuration",
          "type": "uint32"
        }
      ],
      "name": "setAccess",
      "outputs": [],
      "stateMutability": "nonpayable",
      "type": "function"
    },
    {
      "inputs": [
        {
          "internalType": "address",
          "name": "operator",
          "type": "address"
        },
        {
          "internalType": "bool",
          "name": "approved",
          "type": "bool"
        }
      ],
      "name": "setApprovalForAll",
      "outputs": [],
      "stateMutability": "nonpayable",
      "type": "function"
    },
    {
      "inputs": [
        {
          "internalType": "string",
          "name": "resourceId",
          "type": "string"
        },
        {
          "internalType": "uint256",
          "name": "price",
          "type": "uint256"
        },
        {
          "internalType": "uint32",
          "name": "expirationDuration",
          "type": "uint32"
        },
        {
          "internalType": "string",
          "name": "imageURL",
          "type": "string"
        }
      ],
      "name": "setSubscription",
      "outputs": [],
      "stateMutability": "nonpayable",
      "type": "function"
    },
    {
      "inputs": [
        {
          "internalType": "address",
          "name": "",
          "type": "address"
        },
        {
          "internalType": "uint256",
          "name": "",
          "type": "uint256"
        }
      ],
      "name": "shopSubscriptions",
      "outputs": [
        {
          "internalType": "string",
          "name": "resourceId",
          "type": "string"
        },
        {
          "internalType": "string",
          "name": "imageURL",
          "type": "string"
        }
      ],
      "stateMutability": "view",
      "type": "function"
    },
    {
      "inputs": [
        {
          "internalType": "bytes4",
          "name": "interfaceId",
          "type": "bytes4"
        }
      ],
      "name": "supportsInterface",
      "outputs": [
        {
          "internalType": "bool",
          "name": "",
          "type": "bool"
        }
      ],
      "stateMutability": "view",
      "type": "function"
    },
    {
      "inputs": [],
      "name": "symbol",
      "outputs": [
        {
          "internalType": "string",
          "name": "",
          "type": "string"
        }
      ],
      "stateMutability": "view",
      "type": "function"
    },
    {
      "inputs": [
        {
          "internalType": "uint256",
          "name": "index",
          "type": "uint256"
        }
      ],
      "name": "tokenByIndex",
      "outputs": [
        {
          "internalType": "uint256",
          "name": "",
          "type": "uint256"
        }
      ],
      "stateMutability": "view",
      "type": "function"
    },
    {
      "inputs": [
        {
          "internalType": "address",
          "name": "owner",
          "type": "address"
        },
        {
          "internalType": "uint256",
          "name": "index",
          "type": "uint256"
        }
      ],
      "name": "tokenOfOwnerByIndex",
      "outputs": [
        {
          "internalType": "uint256",
          "name": "",
          "type": "uint256"
        }
      ],
      "stateMutability": "view",
      "type": "function"
    },
    {
      "inputs": [
        {
          "internalType": "uint256",
          "name": "id",
          "type": "uint256"
        }
      ],
      "name": "tokenURI",
      "outputs": [
        {
          "internalType": "string",
          "name": "",
          "type": "string"
        }
      ],
      "stateMutability": "view",
      "type": "function"
    },
    {
      "inputs": [],
      "name": "totalSupply",
      "outputs": [
        {
          "internalType": "uint256",
          "name": "",
          "type": "uint256"
        }
      ],
      "stateMutability": "view",
      "type": "function"
    },
    {
      "inputs": [
        {
          "internalType": "address",
          "name": "from",
          "type": "address"
        },
        {
          "internalType": "address",
          "name": "to",
          "type": "address"
        },
        {
          "internalType": "uint256",
          "name": "tokenId",
          "type": "uint256"
        }
      ],
      "name": "transferFrom",
      "outputs": [],
      "stateMutability": "nonpayable",
      "type": "function"
    }
  ],
  "bytecode": "0x60e0604052603f60808181529062002f0f60a039600c9062000022908262000143565b503480156200003057600080fd5b50604051806040016040528060098152602001682837b1b5b2ba39bab160b91b81525060405180604001604052806003815260200162504b5360e81b8152508181816000908162000082919062000143565b50600162000091828262000143565b50505050506200020f565b634e487b7160e01b600052604160045260246000fd5b600181811c90821680620000c757607f821691505b602082108103620000e857634e487b7160e01b600052602260045260246000fd5b50919050565b601f8211156200013e576000816000526020600020601f850160051c81016020861015620001195750805b601f850160051c820191505b818110156200013a5782815560010162000125565b5050505b505050565b81516001600160401b038111156200015f576200015f6200009c565b6200017781620001708454620000b2565b84620000ee565b602080601f831160018114620001af5760008415620001965750858301515b600019600386901b1c1916600185901b1785556200013a565b600085815260208120601f198616915b82811015620001e057888601518255948401946001909101908401620001bf565b5085821015620001ff5787850151600019600388901b60f8161c191681555b5050505050600190811b01905550565b612cf0806200021f6000396000f3fe6080604052600436106101b75760003560e01c80636352211e116100ec578063a22cb4651161008a578063c87b56dd11610064578063c87b56dd14610543578063d10e2e1914610563578063e985e9c514610583578063fa8509c8146105a357600080fd5b8063a22cb465146104e3578063a97ae22314610503578063b88d4fde1461052357600080fd5b80638c210975116100c65780638c2109751461045257806395d89b41146104815780639f098c4e14610496578063a13645ce146104b657600080fd5b80636352211e146103e357806370a08231146104035780638b6df91a1461042357600080fd5b80632c94436f1161015957806342842e0e1161013357806342842e0e146103555780634f6ccce714610375578063513896af1461039557806357fe5336146103b557600080fd5b80632c94436f146102cc5780632f745c59146102fb57806340735c5b1461031b57600080fd5b8063095ea7b311610195578063095ea7b31461024b5780630aa568111461026d57806318160ddd1461028d57806323b872dd146102ac57600080fd5b806301ffc9a7146101bc57806306fdde03146101f1578063081812fc14610213575b600080fd5b3480156101c857600080fd5b506101dc6101d7366004612193565b6105b6565b60405190151581526020015b60405180910390f35b3480156101fd57600080fd5b506102066105c7565b6040516101e89190612207565b34801561021f57600080fd5b5061023361022e36600461221a565b610659565b6040516001600160a01b0390911681526020016101e8565b34801561025757600080fd5b5061026b61026636600461224f565b610682565b005b34801561027957600080fd5b5061026b6102883660046122d4565b610691565b34801561029957600080fd5b506008545b6040519081526020016101e8565b3480156102b857600080fd5b5061026b6102c7366004612333565b6106a4565b3480156102d857600080fd5b506102ec6102e736600461236f565b61072e565b6040516101e8939291906123d4565b34801561030757600080fd5b5061029e61031636600461224f565b6109d4565b34801561032757600080fd5b5061033b610336366004612402565b610a39565b6040805192835263ffffffff9091166020830152016101e8565b34801561036157600080fd5b5061026b610370366004612333565b610a76565b34801561038157600080fd5b5061029e61039036600461221a565b610a96565b3480156103a157600080fd5b5061026b6103b0366004612455565b610aef565b3480156103c157600080fd5b506103d56103d036600461224f565b610bca565b6040516101e89291906124e3565b3480156103ef57600080fd5b506102336103fe36600461221a565b610d1b565b34801561040f57600080fd5b5061029e61041e366004612511565b610d26565b34801561042f57600080fd5b5061044361043e36600461221a565b610d6e565b6040516101e89392919061252c565b34801561045e57600080fd5b5061047261046d36600461221a565b610e1f565b6040516101e89392919061255b565b34801561048d57600080fd5b50610206610ed0565b3480156104a257600080fd5b506101dc6104b1366004612402565b610edf565b3480156104c257600080fd5b506104d66104d1366004612511565b610f59565b6040516101e8919061258a565b3480156104ef57600080fd5b5061026b6104fe36600461263b565b61129a565b34801561050f57600080fd5b5061026b61051e366004612672565b6112a5565b34801561052f57600080fd5b5061026b61053e3660046126ca565b6112e8565b34801561054f57600080fd5b5061020661055e36600461221a565b6112ff565b34801561056f57600080fd5b506101dc61057e36600461221a565b61142a565b34801561058f57600080fd5b506101dc61059e3660046127a6565b61144c565b61026b6105b136600461236f565b61147a565b60006105c182611690565b92915050565b6060600080546105d6906127d9565b80601f0160208091040260200160405190810160405280929190818152602001828054610602906127d9565b801561064f5780601f106106245761010080835404028352916020019161064f565b820191906000526020600020905b81548152906001019060200180831161063257829003601f168201915b5050505050905090565b6000610664826116b5565b506000828152600460205260409020546001600160a01b03166105c1565b61068d8282336116ee565b5050565b61069e33858585856116fb565b50505050565b6001600160a01b0382166106d357604051633250574960e11b8152600060048201526024015b60405180910390fd5b60006106e08383336117a8565b9050836001600160a01b0316816001600160a01b03161461069e576040516364283d7b60e01b81526001600160a01b03808616600483015260248201849052821660448201526064016106ca565b600060606000806107408888886117b5565b60405163d10e2e1960e01b815260048101829052909150309063d10e2e1990602401602060405180830381865afa15801561077f573d6000803e3d6000fd5b505050506040513d601f19601f820116820180604052508101906107a39190612813565b6107e25750506040805180820190915260148152731858d8d95cdcc8191bd95cdb89dd08195e1a5cdd60621b60208201526000925090506000196109ca565b6000805b6107ef87610d26565b81101561094557600061080288836109d4565b90506000600b60008381526020019081526020016000206040518060600160405290816000820154815260200160018201805461083e906127d9565b80601f016020809104026020016040519081016040528092919081815260200182805461086a906127d9565b80156108b75780601f1061088c576101008083540402835291602001916108b7565b820191906000526020600020905b81548152906001019060200180831161089a57829003601f168201915b50505091835250506002919091015463ffffffff16602090910152805190915085900361093a57806040015163ffffffff164211156108fb5760019350505061093d565b600181604001516040518060400160405280600e81526020016d1858d8d95cdcc819dc985b9d195960921b8152509097509750975050505050506109ca565b50505b6001016107e6565b508061098c5760006000196040518060400160405280601881526020017f7573657220646f65736e2774206f776e20746865204e46540000000000000000815250906109bd565b6000600019604051806040016040528060118152602001701858d8d95cdcc81a5cc8195e1c1a5c9959607a1b815250905b919650945060000b925050505b9450945094915050565b60006109df83610d26565b8210610a105760405163295f44f760e21b81526001600160a01b0384166004820152602481018390526044016106ca565b506001600160a01b03919091166000908152600660209081526040808320938352929052205490565b6000806000610a498686866117b5565b6000908152600a60205260409020600181015460029091015490935063ffffffff16915050935093915050565b610a91838383604051806020016040528060008152506112e8565b505050565b6000610aa160085490565b8210610aca5760405163295f44f760e21b815260006004820152602481018390526044016106ca565b60088281548110610add57610add612830565b90600052602060002001549050919050565b336000908152600d602090815260409182902082516060601f8a018490049093028101830184529283018881529092918291908a908a9081908501838280828437600092019190915250505090825250604080516020601f8701819004810282018101909252858152918101919086908690819084018382808284376000920182905250939094525050835460018101855593815260209020825192936002020191829150610b9e908261288e565b5060208201516001820190610bb3908261288e565b505050610bc286868686610691565b505050505050565b600d6020528160005260406000208181548110610be657600080fd5b906000526020600020906002020160009150915050806000018054610c0a906127d9565b80601f0160208091040260200160405190810160405280929190818152602001828054610c36906127d9565b8015610c835780601f10610c5857610100808354040283529160200191610c83565b820191906000526020600020905b815481529060010190602001808311610c6657829003601f168201915b505050505090806001018054610c98906127d9565b80601f0160208091040260200160405190810160405280929190818152602001828054610cc4906127d9565b8015610d115780601f10610ce657610100808354040283529160200191610d11565b820191906000526020600020905b815481529060010190602001808311610cf457829003601f168201915b5050505050905082565b60006105c1826116b5565b60006001600160a01b038216610d52576040516322718ad960e21b8152600060048201526024016106ca565b506001600160a01b031660009081526003602052604090205490565b600a60205260009081526040902080548190610d89906127d9565b80601f0160208091040260200160405190810160405280929190818152602001828054610db5906127d9565b8015610e025780601f10610dd757610100808354040283529160200191610e02565b820191906000526020600020905b815481529060010190602001808311610de557829003601f168201915b50505050600183015460029093015491929163ffffffff16905083565b600b6020526000908152604090208054600182018054919291610e41906127d9565b80601f0160208091040260200160405190810160405280929190818152602001828054610e6d906127d9565b8015610eba5780601f10610e8f57610100808354040283529160200191610eba565b820191906000526020600020905b815481529060010190602001808311610e9d57829003601f168201915b5050506002909301549192505063ffffffff1683565b6060600180546105d6906127d9565b60003063d10e2e19610ef28686866117b5565b6040518263ffffffff1660e01b8152600401610f1091815260200190565b602060405180830381865afa158015610f2d573d6000803e3d6000fd5b505050506040513d601f19601f82011682018060405250810190610f519190612813565b949350505050565b6001600160a01b0381166000908152600d60205260408120546060918167ffffffffffffffff811115610f8e57610f8e6126b4565b604051908082528060200260200182016040528015610ff057816020015b610fdd6040518060800160405280606081526020016060815260200160008152602001600063ffffffff1681525090565b815260200190600190039081610fac5790505b50905060005b82811015611292576001600160a01b0385166000908152600d602052604081208054829130916340735c5b918a918790811061103457611034612830565b90600052602060002090600202016000016040518363ffffffff1660e01b815260040161106292919061294e565b6040805180830381865afa15801561107e573d6000803e3d6000fd5b505050506040513d601f19601f820116820180604052508101906110a291906129ee565b915091506040518060800160405280600d60008a6001600160a01b03166001600160a01b0316815260200190815260200160002085815481106110e7576110e7612830565b90600052602060002090600202016000018054611103906127d9565b80601f016020809104026020016040519081016040528092919081815260200182805461112f906127d9565b801561117c5780601f106111515761010080835404028352916020019161117c565b820191906000526020600020905b81548152906001019060200180831161115f57829003601f168201915b50505050508152602001600d60008a6001600160a01b03166001600160a01b0316815260200190815260200160002085815481106111bc576111bc612830565b906000526020600020906002020160010180546111d8906127d9565b80601f0160208091040260200160405190810160405280929190818152602001828054611204906127d9565b80156112515780601f1061122657610100808354040283529160200191611251565b820191906000526020600020905b81548152906001019060200180831161123457829003601f168201915b505050505081526020018381526020018263ffffffff1681525084848151811061127d5761127d612830565b60209081029190910101525050600101610ff6565b509392505050565b61068d3383836117eb565b60006112b23384846117b5565b6000818152600a602052604081209192506112cd8282612127565b5060006001820155600201805463ffffffff19169055505050565b6112f38484846106a4565b61069e8484848461188a565b6060600061130c836119b3565b60405160200161131c9190612a13565b60408051601f198184030181529082905261133991602001612a4c565b604051602081830303815290604052600c60405160200161135a9190612ab3565b60408051601f19818403018152908290526113789291602001612b29565b60408051601f1981840301815260608301909152603480835290925060009190612c87602083013990506000604051806040016040528060038152602001627d5d7d60e81b815250905082826040516020016113d5929190612b29565b60408051601f19818403018152908290526113f4918390602001612b29565b60408051601f198184030181529082905261141191602001612b58565b6040516020818303038152906040529350505050919050565b6000818152600a602052604081208054611443906127d9565b15159392505050565b6001600160a01b03918216600090815260056020908152604080832093909416825291909152205460ff1690565b60006114878585856117b5565b60405163d10e2e1960e01b815260048101829052909150309063d10e2e1990602401602060405180830381865afa1580156114c6573d6000803e3d6000fd5b505050506040513d601f19601f820116820180604052508101906114ea9190612813565b61150a57604051636bbe423d60e11b8152600481018290526024016106ca565b6000818152600a602052604090206001015434811115611540576040516365bc667160e11b8152600481018290526024016106ca565b600061154b60085490565b90506040518060600160405280848152602001600a6000868152602001908152602001600020600001805461157f906127d9565b80601f01602080910402602001604051908101604052809291908181526020018280546115ab906127d9565b80156115f85780601f106115cd576101008083540402835291602001916115f8565b820191906000526020600020905b8154815290600101906020018083116115db57829003601f168201915b50505091835250506000858152600a602090815260409091206002015491019061162990429063ffffffff16612bb3565b63ffffffff1690526000828152600b6020908152604090912082518155908201516001820190611659908261288e565b50604091909101516002909101805463ffffffff191663ffffffff9092169190911790556116878482611a46565b50505050505050565b60006001600160e01b0319821663780e9d6360e01b14806105c157506105c182611a60565b6000818152600260205260408120546001600160a01b0316806105c157604051637e27328960e01b8152600481018490526024016106ca565b610a918383836001611ab0565b60006117088686866117b5565b6040805160806020601f890181900402820181019092526060810187815292935091829188908890819085018382808284376000920182905250938552505050602080830187905263ffffffff8616604093840152848252600a90522081518190611773908261288e565b50602082015160018201556040909101516002909101805463ffffffff191663ffffffff909216919091179055505050505050565b6000610f51848484611bb6565b60008383836040516020016117cc93929190612bd7565b6040516020818303038152906040528051906020012090509392505050565b6001600160a01b03821661181d57604051630b61174360e31b81526001600160a01b03831660048201526024016106ca565b6001600160a01b03838116600081815260056020908152604080832094871680845294825291829020805460ff191686151590811790915591519182527f17307eab39ab6107e8899845ad3d59bd9653f200f220920489ca2b5937696c31910160405180910390a3505050565b6001600160a01b0383163b1561069e57604051630a85bd0160e11b81526001600160a01b0384169063150b7a02906118cc903390889087908790600401612c03565b6020604051808303816000875af1925050508015611907575060408051601f3d908101601f1916820190925261190491810190612c40565b60015b611970573d808015611935576040519150601f19603f3d011682016040523d82523d6000602084013e61193a565b606091505b50805160000361196857604051633250574960e11b81526001600160a01b03851660048201526024016106ca565b805181602001fd5b6001600160e01b03198116630a85bd0160e11b146119ac57604051633250574960e11b81526001600160a01b03851660048201526024016106ca565b5050505050565b606060006119c083611c83565b600101905060008167ffffffffffffffff8111156119e0576119e06126b4565b6040519080825280601f01601f191660200182016040528015611a0a576020820181803683370190505b5090508181016020015b600019016f181899199a1a9b1b9c1cb0b131b232b360811b600a86061a8153600a8504945084611a1457509392505050565b61068d828260405180602001604052806000815250611d5b565b60006001600160e01b031982166380ac58cd60e01b1480611a9157506001600160e01b03198216635b5e139f60e01b145b806105c157506301ffc9a760e01b6001600160e01b03198316146105c1565b8080611ac457506001600160a01b03821615155b15611b86576000611ad4846116b5565b90506001600160a01b03831615801590611b005750826001600160a01b0316816001600160a01b031614155b8015611b135750611b11818461144c565b155b15611b3c5760405163a9fbf51f60e01b81526001600160a01b03841660048201526024016106ca565b8115611b845783856001600160a01b0316826001600160a01b03167f8c5be1e5ebec7d5bd14f71427d1e84f3dd0314c0f7b2291e5b200ac8c7c3b92560405160405180910390a45b505b5050600090815260046020526040902080546001600160a01b0319166001600160a01b0392909216919091179055565b600080611bc4858585611d72565b90506001600160a01b038116611c2157611c1c84600880546000838152600960205260408120829055600182018355919091527ff3f7a9fe364faab93b216da50a3214154f22a0a2b415b23a84c8169e8b636ee30155565b611c44565b846001600160a01b0316816001600160a01b031614611c4457611c448185611e6b565b6001600160a01b038516611c6057611c5b84611efc565b610f51565b846001600160a01b0316816001600160a01b031614610f5157610f518585611fab565b60008072184f03e93ff9f4daa797ed6e38ed64bf6a1f0160401b8310611cc25772184f03e93ff9f4daa797ed6e38ed64bf6a1f0160401b830492506040015b6d04ee2d6d415b85acef81000000008310611cee576d04ee2d6d415b85acef8100000000830492506020015b662386f26fc100008310611d0c57662386f26fc10000830492506010015b6305f5e1008310611d24576305f5e100830492506008015b6127108310611d3857612710830492506004015b60648310611d4a576064830492506002015b600a83106105c15760010192915050565b611d658383611ffb565b610a91600084848461188a565b6000828152600260205260408120546001600160a01b0390811690831615611d9f57611d9f818486612060565b6001600160a01b03811615611ddd57611dbc600085600080611ab0565b6001600160a01b038116600090815260036020526040902080546000190190555b6001600160a01b03851615611e0c576001600160a01b0385166000908152600360205260409020805460010190555b60008481526002602052604080822080546001600160a01b0319166001600160a01b0389811691821790925591518793918516917fddf252ad1be2c89b69c2b068fc378daa952ba7f163c4a11628f55a4df523b3ef91a4949350505050565b6000611e7683610d26565b600083815260076020526040902054909150808214611ec9576001600160a01b03841660009081526006602090815260408083208584528252808320548484528184208190558352600790915290208190555b5060009182526007602090815260408084208490556001600160a01b039094168352600681528383209183525290812055565b600854600090611f0e90600190612c5d565b60008381526009602052604081205460088054939450909284908110611f3657611f36612830565b906000526020600020015490508060088381548110611f5757611f57612830565b6000918252602080832090910192909255828152600990915260408082208490558582528120556008805480611f8f57611f8f612c70565b6001900381819060005260206000200160009055905550505050565b60006001611fb884610d26565b611fc29190612c5d565b6001600160a01b039093166000908152600660209081526040808320868452825280832085905593825260079052919091209190915550565b6001600160a01b03821661202557604051633250574960e11b8152600060048201526024016106ca565b6000612033838360006117a8565b90506001600160a01b03811615610a91576040516339e3563760e11b8152600060048201526024016106ca565b61206b8383836120c4565b610a91576001600160a01b03831661209957604051637e27328960e01b8152600481018290526024016106ca565b60405163177e802f60e01b81526001600160a01b0383166004820152602481018290526044016106ca565b60006001600160a01b03831615801590610f515750826001600160a01b0316846001600160a01b031614806120fe57506120fe848461144c565b80610f515750506000908152600460205260409020546001600160a01b03908116911614919050565b508054612133906127d9565b6000825580601f10612143575050565b601f0160209004906000526020600020908101906121619190612164565b50565b5b808211156121795760008155600101612165565b5090565b6001600160e01b03198116811461216157600080fd5b6000602082840312156121a557600080fd5b81356121b08161217d565b9392505050565b60005b838110156121d25781810151838201526020016121ba565b50506000910152565b600081518084526121f38160208601602086016121b7565b601f01601f19169290920160200192915050565b6020815260006121b060208301846121db565b60006020828403121561222c57600080fd5b5035919050565b80356001600160a01b038116811461224a57600080fd5b919050565b6000806040838503121561226257600080fd5b61226b83612233565b946020939093013593505050565b60008083601f84011261228b57600080fd5b50813567ffffffffffffffff8111156122a357600080fd5b6020830191508360208285010111156122bb57600080fd5b9250929050565b63ffffffff8116811461216157600080fd5b600080600080606085870312156122ea57600080fd5b843567ffffffffffffffff81111561230157600080fd5b61230d87828801612279565b909550935050602085013591506040850135612328816122c2565b939692955090935050565b60008060006060848603121561234857600080fd5b61235184612233565b925061235f60208501612233565b9150604084013590509250925092565b6000806000806060858703121561238557600080fd5b61238e85612233565b9350602085013567ffffffffffffffff8111156123aa57600080fd5b6123b687828801612279565b90945092506123c9905060408601612233565b905092959194509250565b83151581526060602082015260006123ef60608301856121db565b90508260030b6040830152949350505050565b60008060006040848603121561241757600080fd5b61242084612233565b9250602084013567ffffffffffffffff81111561243c57600080fd5b61244886828701612279565b9497909650939450505050565b6000806000806000806080878903121561246e57600080fd5b863567ffffffffffffffff8082111561248657600080fd5b6124928a838b01612279565b909850965060208901359550604089013591506124ae826122c2565b909350606088013590808211156124c457600080fd5b506124d189828a01612279565b979a9699509497509295939492505050565b6040815260006124f660408301856121db565b828103602084015261250881856121db565b95945050505050565b60006020828403121561252357600080fd5b6121b082612233565b60608152600061253f60608301866121db565b905083602083015263ffffffff83166040830152949350505050565b83815260606020820152600061257460608301856121db565b905063ffffffff83166040830152949350505050565b600060208083018184528085518083526040925060408601915060408160051b87010184880160005b8381101561261f57603f198984030185528151608081518186526125d9828701826121db565b915050888201518582038a8701526125f182826121db565b838a0151878b015260609384015163ffffffff169390960192909252505093860193908601906001016125b3565b509098975050505050505050565b801515811461216157600080fd5b6000806040838503121561264e57600080fd5b61265783612233565b915060208301356126678161262d565b809150509250929050565b6000806020838503121561268557600080fd5b823567ffffffffffffffff81111561269c57600080fd5b6126a885828601612279565b90969095509350505050565b634e487b7160e01b600052604160045260246000fd5b600080600080608085870312156126e057600080fd5b6126e985612233565b93506126f760208601612233565b925060408501359150606085013567ffffffffffffffff8082111561271b57600080fd5b818701915087601f83011261272f57600080fd5b813581811115612741576127416126b4565b604051601f8201601f19908116603f01168101908382118183101715612769576127696126b4565b816040528281528a602084870101111561278257600080fd5b82602086016020830137600060208483010152809550505050505092959194509250565b600080604083850312156127b957600080fd5b6127c283612233565b91506127d060208401612233565b90509250929050565b600181811c908216806127ed57607f821691505b60208210810361280d57634e487b7160e01b600052602260045260246000fd5b50919050565b60006020828403121561282557600080fd5b81516121b08161262d565b634e487b7160e01b600052603260045260246000fd5b601f821115610a91576000816000526020600020601f850160051c8101602086101561286f5750805b601f850160051c820191505b81811015610bc25782815560010161287b565b815167ffffffffffffffff8111156128a8576128a86126b4565b6128bc816128b684546127d9565b84612846565b602080601f8311600181146128f157600084156128d95750858301515b600019600386901b1c1916600185901b178555610bc2565b600085815260208120601f198616915b8281101561292057888601518255948401946001909101908401612901565b508582101561293e5787850151600019600388901b60f8161c191681555b5050505050600190811b01905550565b60018060a01b0383168152600060206040602084015260008454612971816127d9565b806040870152606060018084166000811461299357600181146129af576129df565b60ff19851660608a0152606084151560051b8a010195506129df565b89600052602060002060005b858110156129d65781548b82018601529083019088016129bb565b8a016060019650505b50939998505050505050505050565b60008060408385031215612a0157600080fd5b825191506020830151612667816122c2565b6f7b226e616d65223a202254657374202360801b81528151600090612a3f8160108501602087016121b7565b9190910160100192915050565b60008251612a5e8184602087016121b7565b7f222c226465736372697074696f6e223a22544244222c2265787465726e616c5f9201918252507f75726c223a2268747470733a2f2f544244222c22696d616765223a22000000006020820152603c01919050565b6000808354612ac1816127d9565b60018281168015612ad95760018114612aee57612b1d565b60ff1984168752821515830287019450612b1d565b8760005260208060002060005b85811015612b145781548a820152908401908201612afb565b50505082870194505b50929695505050505050565b60008351612b3b8184602088016121b7565b835190830190612b4f8183602088016121b7565b01949350505050565b7f646174613a6170706c69636174696f6e2f6a736f6e3b757466382c0000000000815260008251612b9081601b8501602087016121b7565b91909101601b0192915050565b634e487b7160e01b600052601160045260246000fd5b63ffffffff818116838216019080821115612bd057612bd0612b9d565b5092915050565b6bffffffffffffffffffffffff198460601b168152818360148301376000910160140190815292915050565b6001600160a01b0385811682528416602082015260408101839052608060608201819052600090612c36908301846121db565b9695505050505050565b600060208284031215612c5257600080fd5b81516121b08161217d565b818103818111156105c1576105c1612b9d565b634e487b7160e01b600052603160045260246000fdfe222c2261747472696275746573223a5b7b2274726169745f74797065223a22436f6c6f72222c2276616c7565223a202254424422a2646970667358221220d316d435b10b4492f78dd02bbb991070c2e068463143a240f1055573a654897a64736f6c6343000818003368747470733a2f2f617277656176652e6e65742f3975306367546d6b534d323550665170475a2d4a7a73706a4f4d66347547466a6b764f664b6a67516e5659",
  "linkReferences": {},
  "deployedLinkReferences": {}
}